{
  "contractName": "Escrow",
  "abi": [
    {
      "inputs": [
        {
          "internalType": "address",
          "name": "_vibra",
          "type": "address"
        },
        {
          "internalType": "uint256",
          "name": "_value",
          "type": "uint256"
        },
        {
          "internalType": "address",
          "name": "_buyer",
          "type": "address"
        },
        {
          "internalType": "address",
          "name": "_seller",
          "type": "address"
        }
      ],
      "stateMutability": "nonpayable",
      "type": "constructor"
    },
    {
      "anonymous": false,
      "inputs": [
        {
          "indexed": true,
          "internalType": "address",
          "name": "from",
          "type": "address"
        },
        {
          "indexed": false,
          "internalType": "uint256",
          "name": "value",
          "type": "uint256"
        }
      ],
      "name": "Deposit",
      "type": "event"
    },
    {
      "anonymous": false,
      "inputs": [
        {
          "indexed": true,
          "internalType": "address",
          "name": "buyer",
          "type": "address"
        },
        {
          "indexed": true,
          "internalType": "address",
          "name": "seller",
          "type": "address"
        },
        {
          "indexed": false,
          "internalType": "uint256",
          "name": "value",
          "type": "uint256"
        }
      ],
      "name": "Dispute",
      "type": "event"
    },
    {
      "anonymous": false,
      "inputs": [
        {
          "indexed": true,
          "internalType": "address",
          "name": "previousOwner",
          "type": "address"
        },
        {
          "indexed": true,
          "internalType": "address",
          "name": "newOwner",
          "type": "address"
        }
      ],
      "name": "OwnershipTransferred",
      "type": "event"
    },
    {
      "anonymous": false,
      "inputs": [
        {
          "indexed": true,
          "internalType": "address",
          "name": "to",
          "type": "address"
        },
        {
          "indexed": false,
          "internalType": "uint256",
          "name": "value",
          "type": "uint256"
        }
      ],
      "name": "Payment",
      "type": "event"
    },
    {
      "anonymous": false,
      "inputs": [
        {
          "indexed": false,
          "internalType": "address",
          "name": "to",
          "type": "address"
        },
        {
          "indexed": false,
          "internalType": "uint256",
          "name": "value",
          "type": "uint256"
        }
      ],
      "name": "Refund",
      "type": "event"
    },
    {
      "inputs": [],
      "name": "buyer",
      "outputs": [
        {
          "internalType": "address",
          "name": "",
          "type": "address"
        }
      ],
      "stateMutability": "view",
      "type": "function",
      "constant": true
    },
    {
      "inputs": [],
      "name": "owner",
      "outputs": [
        {
          "internalType": "address",
          "name": "",
          "type": "address"
        }
      ],
      "stateMutability": "view",
      "type": "function",
      "constant": true
    },
    {
      "inputs": [],
      "name": "renounceOwnership",
      "outputs": [],
      "stateMutability": "nonpayable",
      "type": "function"
    },
    {
      "inputs": [],
      "name": "seller",
      "outputs": [
        {
          "internalType": "address",
          "name": "",
          "type": "address"
        }
      ],
      "stateMutability": "view",
      "type": "function",
      "constant": true
    },
    {
      "inputs": [],
      "name": "state",
      "outputs": [
        {
          "internalType": "enum Escrow.State",
          "name": "",
          "type": "uint8"
        }
      ],
      "stateMutability": "view",
      "type": "function",
      "constant": true
    },
    {
      "inputs": [
        {
          "internalType": "address",
          "name": "newOwner",
          "type": "address"
        }
      ],
      "name": "transferOwnership",
      "outputs": [],
      "stateMutability": "nonpayable",
      "type": "function"
    },
    {
      "inputs": [
        {
          "internalType": "uint256",
          "name": "_amount",
          "type": "uint256"
        }
      ],
      "name": "deposit",
      "outputs": [],
      "stateMutability": "nonpayable",
      "type": "function"
    },
    {
      "inputs": [],
      "name": "confirmDelivery",
      "outputs": [],
      "stateMutability": "nonpayable",
      "type": "function"
    },
    {
      "inputs": [],
      "name": "dispute",
      "outputs": [],
      "stateMutability": "nonpayable",
      "type": "function"
    },
    {
      "inputs": [],
      "name": "processRefund",
      "outputs": [],
      "stateMutability": "nonpayable",
      "type": "function"
    }
  ],
  "bytecode": "0x60806040523480156200001157600080fd5b506040516200183738038062001837833981810160405281019062000037919062000225565b620000576200004b6200012b60201b60201c565b6200013360201b60201c565b83600160006101000a81548173ffffffffffffffffffffffffffffffffffffffff021916908373ffffffffffffffffffffffffffffffffffffffff1602179055508260028190555081600360006101000a81548173ffffffffffffffffffffffffffffffffffffffff021916908373ffffffffffffffffffffffffffffffffffffffff16021790555080600460006101000a81548173ffffffffffffffffffffffffffffffffffffffff021916908373ffffffffffffffffffffffffffffffffffffffff1602179055505050505062000303565b600033905090565b60008060009054906101000a900473ffffffffffffffffffffffffffffffffffffffff169050816000806101000a81548173ffffffffffffffffffffffffffffffffffffffff021916908373ffffffffffffffffffffffffffffffffffffffff1602179055508173ffffffffffffffffffffffffffffffffffffffff168173ffffffffffffffffffffffffffffffffffffffff167f8be0079c531659141344cd1fd0a4f28419497f9722a3daafe3b4186f6b6457e060405160405180910390a35050565b6000815190506200020881620002cf565b92915050565b6000815190506200021f81620002e9565b92915050565b600080600080608085870312156200023c57600080fd5b60006200024c87828801620001f7565b94505060206200025f878288016200020e565b93505060406200027287828801620001f7565b92505060606200028587828801620001f7565b91505092959194509250565b60006200029e82620002a5565b9050919050565b600073ffffffffffffffffffffffffffffffffffffffff82169050919050565b6000819050919050565b620002da8162000291565b8114620002e657600080fd5b50565b620002f481620002c5565b81146200030057600080fd5b50565b61152480620003136000396000f3fe608060405234801561001057600080fd5b506004361061009e5760003560e01c8063b6b55f2511610066578063b6b55f2514610111578063c19d93fb1461012d578063dae805211461014b578063f240f7c314610155578063f2fde38b1461015f5761009e565b806308551a53146100a35780635e10177b146100c1578063715018a6146100cb5780637150d8ae146100d55780638da5cb5b146100f3575b600080fd5b6100ab61017b565b6040516100b89190611257565b60405180910390f35b6100c96101a1565b005b6100d361048c565b005b6100dd610514565b6040516100ea9190611257565b60405180910390f35b6100fb61053a565b6040516101089190611257565b60405180910390f35b61012b60048036038101906101269190610fcf565b610563565b005b61013561084d565b60405161014291906112d2565b60405180910390f35b610153610860565b005b61015d610b2a565b005b61017960048036038101906101749190610f7d565b610d7a565b005b600460009054906101000a900473ffffffffffffffffffffffffffffffffffffffff1681565b600360009054906101000a900473ffffffffffffffffffffffffffffffffffffffff1673ffffffffffffffffffffffffffffffffffffffff163373ffffffffffffffffffffffffffffffffffffffff1614610231576040517f08c379a00000000000000000000000000000000000000000000000000000000081526004016102289061130d565b60405180910390fd5b6001600481111561026b577f4e487b7100000000000000000000000000000000000000000000000000000000600052602160045260246000fd5b600060149054906101000a900460ff1660048111156102b3577f4e487b7100000000000000000000000000000000000000000000000000000000600052602160045260246000fd5b146102f3576040517f08c379a00000000000000000000000000000000000000000000000000000000081526004016102ea9061136d565b60405180910390fd5b600160009054906101000a900473ffffffffffffffffffffffffffffffffffffffff1673ffffffffffffffffffffffffffffffffffffffff1663a9059cbb600460009054906101000a900473ffffffffffffffffffffffffffffffffffffffff166002546040518363ffffffff1660e01b81526004016103749291906112a9565b602060405180830381600087803b15801561038e57600080fd5b505af11580156103a2573d6000803e3d6000fd5b505050506040513d601f19601f820116820180604052508101906103c69190610fa6565b506004600060146101000a81548160ff02191690836004811115610413577f4e487b7100000000000000000000000000000000000000000000000000000000600052602160045260246000fd5b0217905550600460009054906101000a900473ffffffffffffffffffffffffffffffffffffffff1673ffffffffffffffffffffffffffffffffffffffff167fd4f43975feb89f48dd30cabbb32011045be187d1e11c8ea9faa43efc3528251960025460405161048291906113cd565b60405180910390a2565b610494610e72565b73ffffffffffffffffffffffffffffffffffffffff166104b261053a565b73ffffffffffffffffffffffffffffffffffffffff1614610508576040517f08c379a00000000000000000000000000000000000000000000000000000000081526004016104ff9061134d565b60405180910390fd5b6105126000610e7a565b565b600360009054906101000a900473ffffffffffffffffffffffffffffffffffffffff1681565b60008060009054906101000a900473ffffffffffffffffffffffffffffffffffffffff16905090565b600360009054906101000a900473ffffffffffffffffffffffffffffffffffffffff1673ffffffffffffffffffffffffffffffffffffffff163373ffffffffffffffffffffffffffffffffffffffff16146105f3576040517f08c379a00000000000000000000000000000000000000000000000000000000081526004016105ea9061130d565b60405180910390fd5b6000600481111561062d577f4e487b7100000000000000000000000000000000000000000000000000000000600052602160045260246000fd5b600060149054906101000a900460ff166004811115610675577f4e487b7100000000000000000000000000000000000000000000000000000000600052602160045260246000fd5b146106b5576040517f08c379a00000000000000000000000000000000000000000000000000000000081526004016106ac9061132d565b60405180910390fd5b60025481146106f9576040517f08c379a00000000000000000000000000000000000000000000000000000000081526004016106f09061138d565b60405180910390fd5b600160009054906101000a900473ffffffffffffffffffffffffffffffffffffffff1673ffffffffffffffffffffffffffffffffffffffff166323b872dd3330846040518463ffffffff1660e01b815260040161075893929190611272565b602060405180830381600087803b15801561077257600080fd5b505af1158015610786573d6000803e3d6000fd5b505050506040513d601f19601f820116820180604052508101906107aa9190610fa6565b506001600060146101000a81548160ff021916908360048111156107f7577f4e487b7100000000000000000000000000000000000000000000000000000000600052602160045260246000fd5b02179055503373ffffffffffffffffffffffffffffffffffffffff167fe1fffcc4923d04b559f4d29a8bfc6cda04eb5b0d3c460751c2402c5c5cc9109c8260405161084291906113cd565b60405180910390a250565b600060149054906101000a900460ff1681565b610868610e72565b73ffffffffffffffffffffffffffffffffffffffff1661088661053a565b73ffffffffffffffffffffffffffffffffffffffff16146108dc576040517f08c379a00000000000000000000000000000000000000000000000000000000081526004016108d39061134d565b60405180910390fd5b60026004811115610916577f4e487b7100000000000000000000000000000000000000000000000000000000600052602160045260246000fd5b600060149054906101000a900460ff16600481111561095e577f4e487b7100000000000000000000000000000000000000000000000000000000600052602160045260246000fd5b1461099e576040517f08c379a0000000000000000000000000000000000000000000000000000000008152600401610995906113ad565b60405180910390fd5b600160009054906101000a900473ffffffffffffffffffffffffffffffffffffffff1673ffffffffffffffffffffffffffffffffffffffff1663a9059cbb600360009054906101000a900473ffffffffffffffffffffffffffffffffffffffff166002546040518363ffffffff1660e01b8152600401610a1f9291906112a9565b602060405180830381600087803b158015610a3957600080fd5b505af1158015610a4d573d6000803e3d6000fd5b505050506040513d601f19601f82011682018060405250810190610a719190610fa6565b507fbb28353e4598c3b9199101a66e0989549b659a59a54d2c27fbb183f1932c8e6d600360009054906101000a900473ffffffffffffffffffffffffffffffffffffffff16600254604051610ac79291906112a9565b60405180910390a16003600060146101000a81548160ff02191690836004811115610b1b577f4e487b7100000000000000000000000000000000000000000000000000000000600052602160045260246000fd5b02179055506000600281905550565b600360009054906101000a900473ffffffffffffffffffffffffffffffffffffffff1673ffffffffffffffffffffffffffffffffffffffff163373ffffffffffffffffffffffffffffffffffffffff1614610bba576040517f08c379a0000000000000000000000000000000000000000000000000000000008152600401610bb19061130d565b60405180910390fd5b60016004811115610bf4577f4e487b7100000000000000000000000000000000000000000000000000000000600052602160045260246000fd5b600060149054906101000a900460ff166004811115610c3c577f4e487b7100000000000000000000000000000000000000000000000000000000600052602160045260246000fd5b14610c7c576040517f08c379a0000000000000000000000000000000000000000000000000000000008152600401610c739061136d565b60405180910390fd5b6002600060146101000a81548160ff02191690836004811115610cc8577f4e487b7100000000000000000000000000000000000000000000000000000000600052602160045260246000fd5b0217905550600460009054906101000a900473ffffffffffffffffffffffffffffffffffffffff1673ffffffffffffffffffffffffffffffffffffffff16600360009054906101000a900473ffffffffffffffffffffffffffffffffffffffff1673ffffffffffffffffffffffffffffffffffffffff167f3039bbbb290ea05336bd9acec0c89358030c0e7e00469f4003c81e5e7c8f6761600254604051610d7091906113cd565b60405180910390a3565b610d82610e72565b73ffffffffffffffffffffffffffffffffffffffff16610da061053a565b73ffffffffffffffffffffffffffffffffffffffff1614610df6576040517f08c379a0000000000000000000000000000000000000000000000000000000008152600401610ded9061134d565b60405180910390fd5b600073ffffffffffffffffffffffffffffffffffffffff168173ffffffffffffffffffffffffffffffffffffffff161415610e66576040517f08c379a0000000000000000000000000000000000000000000000000000000008152600401610e5d906112ed565b60405180910390fd5b610e6f81610e7a565b50565b600033905090565b60008060009054906101000a900473ffffffffffffffffffffffffffffffffffffffff169050816000806101000a81548173ffffffffffffffffffffffffffffffffffffffff021916908373ffffffffffffffffffffffffffffffffffffffff1602179055508173ffffffffffffffffffffffffffffffffffffffff168173ffffffffffffffffffffffffffffffffffffffff167f8be0079c531659141344cd1fd0a4f28419497f9722a3daafe3b4186f6b6457e060405160405180910390a35050565b600081359050610f4d816114a9565b92915050565b600081519050610f62816114c0565b92915050565b600081359050610f77816114d7565b92915050565b600060208284031215610f8f57600080fd5b6000610f9d84828501610f3e565b91505092915050565b600060208284031215610fb857600080fd5b6000610fc684828501610f53565b91505092915050565b600060208284031215610fe157600080fd5b6000610fef84828501610f68565b91505092915050565b611001816113f9565b82525050565b61101081611454565b82525050565b60006110236026836113e8565b91507f4f776e61626c653a206e6577206f776e657220697320746865207a65726f206160008301527f64647265737300000000000000000000000000000000000000000000000000006020830152604082019050919050565b60006110896025836113e8565b91507f4f6e6c79207468652062757965722063616e2063616c6c20746869732066756e60008301527f6374696f6e0000000000000000000000000000000000000000000000000000006020830152604082019050919050565b60006110ef601f836113e8565b91507f41206465706f7369742077617320616c726561647920636f6d706c65746564006000830152602082019050919050565b600061112f6020836113e8565b91507f4f776e61626c653a2063616c6c6572206973206e6f7420746865206f776e65726000830152602082019050919050565b600061116f6022836113e8565b91507f4d75737420626520696e206177616974696e672064656c69766572792073746160008301527f74650000000000000000000000000000000000000000000000000000000000006020830152604082019050919050565b60006111d56018836113e8565b91507f496e636f7272656374206465706f73697420616d6f756e7400000000000000006000830152602082019050919050565b60006112156019836113e8565b91507f4d75737420626520696e206469737075746564207374617465000000000000006000830152602082019050919050565b6112518161144a565b82525050565b600060208201905061126c6000830184610ff8565b92915050565b60006060820190506112876000830186610ff8565b6112946020830185610ff8565b6112a16040830184611248565b949350505050565b60006040820190506112be6000830185610ff8565b6112cb6020830184611248565b9392505050565b60006020820190506112e76000830184611007565b92915050565b6000602082019050818103600083015261130681611016565b9050919050565b600060208201905081810360008301526113268161107c565b9050919050565b60006020820190508181036000830152611346816110e2565b9050919050565b6000602082019050818103600083015261136681611122565b9050919050565b6000602082019050818103600083015261138681611162565b9050919050565b600060208201905081810360008301526113a6816111c8565b9050919050565b600060208201905081810360008301526113c681611208565b9050919050565b60006020820190506113e26000830184611248565b92915050565b600082825260208201905092915050565b60006114048261142a565b9050919050565b60008115159050919050565b600081905061142582611495565b919050565b600073ffffffffffffffffffffffffffffffffffffffff82169050919050565b6000819050919050565b600061145f82611417565b9050919050565b7f4e487b7100000000000000000000000000000000000000000000000000000000600052602160045260246000fd5b600581106114a6576114a5611466565b5b50565b6114b2816113f9565b81146114bd57600080fd5b50565b6114c98161140b565b81146114d457600080fd5b50565b6114e08161144a565b81146114eb57600080fd5b5056fea2646970667358221220807d8c49935b15523e7999e1696a7f5cf2d00f72500ee2d3d2106305cd46857864736f6c63430008000033",
  "immutableReferences": {},
  "source": "// SPDX-License-Identifier: MIT\npragma solidity >=0.8.0;\n\nimport \"@openzeppelin/contracts/access/Ownable.sol\";\nimport \"./Vibra.sol\";\n\ncontract Escrow is Ownable {\n    State public state;\n    Vibra internal vibra;\n    uint256 internal value;\n    address public buyer;\n    address public seller;\n\n    enum State {\n        AWAITING_PAYMENT,\n        AWAITING_DELIVERY,\n        DISPUTED,\n        CANCELED,\n        COMPLETE\n    }\n\n    modifier onlyBuyer() {\n        require(msg.sender == buyer, \"Only the buyer can call this function\");\n        _;\n    }\n\n    event Deposit(address indexed from, uint256 value);\n    event Payment(address indexed to, uint256 value);\n    event Refund(address to, uint256 value);\n    event Dispute(address indexed buyer, address indexed seller, uint256 value);\n\n    constructor(\n        address _vibra,\n        uint256 _value,\n        address _buyer,\n        address _seller\n    ) {\n        vibra = Vibra(_vibra);\n        value = _value;\n        buyer = _buyer;\n        seller = _seller;\n    }\n\n    function deposit(uint256 _amount) external onlyBuyer {\n        require(\n            state == State.AWAITING_PAYMENT,\n            \"A deposit was already completed\"\n        );\n        require(_amount == value, \"Incorrect deposit amount\");\n\n        vibra.transferFrom(msg.sender, address(this), _amount);\n        state = State.AWAITING_DELIVERY;\n\n        emit Deposit(msg.sender, _amount);\n    }\n\n    function confirmDelivery() public onlyBuyer {\n        require(\n            state == State.AWAITING_DELIVERY,\n            \"Must be in awaiting delivery state\"\n        );\n\n        vibra.transfer(seller, value);\n        state = State.COMPLETE;\n\n        emit Payment(seller, value);\n    }\n\n    function dispute() public onlyBuyer {\n        require(\n            state == State.AWAITING_DELIVERY,\n            \"Must be in awaiting delivery state\"\n        );\n        state = State.DISPUTED;\n\n        emit Dispute(buyer, seller, value);\n    }\n\n    function processRefund() public onlyOwner {\n        require(state == State.DISPUTED, \"Must be in disputed state\");\n\n        vibra.transfer(buyer, value);\n        emit Refund(buyer, value);\n\n        state = State.CANCELED;\n        value = 0;\n    }\n}",
  "sourcePath": "/Users/angelicacolon/Desktop/Vibra-Finance/contracts/Escrow.sol",
  "compiler": {
    "name": "solc",
    "version": "0.8.0+commit.c7dfd78e.Emscripten.clang"
  },
  "schemaVersion": "3.4.1",
  "updatedAt": "2021-12-06T11:34:38.530Z",
  "networkType": "ethereum",
  "devdoc": {
    "kind": "dev",
    "methods": {
      "owner()": {
        "details": "Returns the address of the current owner."
      },
      "renounceOwnership()": {
        "details": "Leaves the contract without owner. It will not be possible to call `onlyOwner` functions anymore. Can only be called by the current owner. NOTE: Renouncing ownership will leave the contract without an owner, thereby removing any functionality that is only available to the owner."
      },
      "transferOwnership(address)": {
        "details": "Transfers ownership of the contract to a new account (`newOwner`). Can only be called by the current owner."
      }
    },
    "version": 1
  },
  "userdoc": {
    "kind": "user",
    "methods": {},
    "version": 1
  }
}