{
  "contractName": "Trust",
  "abi": [
    {
      "inputs": [
        {
          "internalType": "address",
          "name": "_vibra",
          "type": "address"
        },
        {
          "internalType": "address",
          "name": "_beneficiary",
          "type": "address"
        },
        {
          "internalType": "address",
          "name": "_organization",
          "type": "address"
        },
        {
          "internalType": "uint256",
          "name": "_minBalance",
          "type": "uint256"
        }
      ],
      "stateMutability": "nonpayable",
      "type": "constructor"
    },
    {
      "anonymous": false,
      "inputs": [
        {
          "indexed": true,
          "internalType": "address",
          "name": "from",
          "type": "address"
        },
        {
          "indexed": false,
          "internalType": "uint256",
          "name": "amount",
          "type": "uint256"
        }
      ],
      "name": "Deposit",
      "type": "event"
    },
    {
      "anonymous": false,
      "inputs": [
        {
          "indexed": true,
          "internalType": "address",
          "name": "holder",
          "type": "address"
        },
        {
          "indexed": false,
          "internalType": "uint256",
          "name": "balance",
          "type": "uint256"
        }
      ],
      "name": "LowBalance",
      "type": "event"
    },
    {
      "anonymous": false,
      "inputs": [
        {
          "indexed": true,
          "internalType": "address",
          "name": "previousOwner",
          "type": "address"
        },
        {
          "indexed": true,
          "internalType": "address",
          "name": "newOwner",
          "type": "address"
        }
      ],
      "name": "OwnershipTransferred",
      "type": "event"
    },
    {
      "anonymous": false,
      "inputs": [
        {
          "indexed": true,
          "internalType": "address",
          "name": "from",
          "type": "address"
        },
        {
          "indexed": true,
          "internalType": "address",
          "name": "to",
          "type": "address"
        },
        {
          "indexed": false,
          "internalType": "uint256",
          "name": "amount",
          "type": "uint256"
        }
      ],
      "name": "Payment",
      "type": "event"
    },
    {
      "anonymous": false,
      "inputs": [
        {
          "indexed": true,
          "internalType": "address",
          "name": "to",
          "type": "address"
        },
        {
          "indexed": false,
          "internalType": "uint256",
          "name": "amount",
          "type": "uint256"
        }
      ],
      "name": "Withdrawal",
      "type": "event"
    },
    {
      "inputs": [],
      "name": "beneficiary",
      "outputs": [
        {
          "internalType": "address",
          "name": "",
          "type": "address"
        }
      ],
      "stateMutability": "view",
      "type": "function"
    },
    {
      "inputs": [],
      "name": "minBalance",
      "outputs": [
        {
          "internalType": "uint256",
          "name": "",
          "type": "uint256"
        }
      ],
      "stateMutability": "view",
      "type": "function"
    },
    {
      "inputs": [],
      "name": "organization",
      "outputs": [
        {
          "internalType": "address",
          "name": "",
          "type": "address"
        }
      ],
      "stateMutability": "view",
      "type": "function"
    },
    {
      "inputs": [],
      "name": "owner",
      "outputs": [
        {
          "internalType": "address",
          "name": "",
          "type": "address"
        }
      ],
      "stateMutability": "view",
      "type": "function"
    },
    {
      "inputs": [],
      "name": "renounceOwnership",
      "outputs": [],
      "stateMutability": "nonpayable",
      "type": "function"
    },
    {
      "inputs": [
        {
          "internalType": "address",
          "name": "newOwner",
          "type": "address"
        }
      ],
      "name": "transferOwnership",
      "outputs": [],
      "stateMutability": "nonpayable",
      "type": "function"
    },
    {
      "inputs": [
        {
          "internalType": "uint256",
          "name": "amount",
          "type": "uint256"
        }
      ],
      "name": "deposit",
      "outputs": [
        {
          "internalType": "bool",
          "name": "",
          "type": "bool"
        }
      ],
      "stateMutability": "nonpayable",
      "type": "function"
    },
    {
      "inputs": [
        {
          "internalType": "uint256",
          "name": "amount",
          "type": "uint256"
        }
      ],
      "name": "chargeFees",
      "outputs": [
        {
          "internalType": "bool",
          "name": "",
          "type": "bool"
        }
      ],
      "stateMutability": "nonpayable",
      "type": "function"
    },
    {
      "inputs": [
        {
          "internalType": "uint256",
          "name": "amount",
          "type": "uint256"
        }
      ],
      "name": "withdraw",
      "outputs": [
        {
          "internalType": "bool",
          "name": "",
          "type": "bool"
        }
      ],
      "stateMutability": "nonpayable",
      "type": "function"
    },
    {
      "inputs": [],
      "name": "withdrawAll",
      "outputs": [
        {
          "internalType": "bool",
          "name": "",
          "type": "bool"
        }
      ],
      "stateMutability": "nonpayable",
      "type": "function"
    }
  ],
  "bytecode": "0x60806040523480156200001157600080fd5b50604051620019b6380380620019b6833981810160405281019062000037919062000225565b620000576200004b6200012b60201b60201c565b6200013360201b60201c565b83600160006101000a81548173ffffffffffffffffffffffffffffffffffffffff021916908373ffffffffffffffffffffffffffffffffffffffff16021790555082600260006101000a81548173ffffffffffffffffffffffffffffffffffffffff021916908373ffffffffffffffffffffffffffffffffffffffff16021790555081600360006101000a81548173ffffffffffffffffffffffffffffffffffffffff021916908373ffffffffffffffffffffffffffffffffffffffff160217905550806005819055505050505062000303565b600033905090565b60008060009054906101000a900473ffffffffffffffffffffffffffffffffffffffff169050816000806101000a81548173ffffffffffffffffffffffffffffffffffffffff021916908373ffffffffffffffffffffffffffffffffffffffff1602179055508173ffffffffffffffffffffffffffffffffffffffff168173ffffffffffffffffffffffffffffffffffffffff167f8be0079c531659141344cd1fd0a4f28419497f9722a3daafe3b4186f6b6457e060405160405180910390a35050565b6000815190506200020881620002cf565b92915050565b6000815190506200021f81620002e9565b92915050565b600080600080608085870312156200023c57600080fd5b60006200024c87828801620001f7565b94505060206200025f87828801620001f7565b93505060406200027287828801620001f7565b925050606062000285878288016200020e565b91505092959194509250565b60006200029e82620002a5565b9050919050565b600073ffffffffffffffffffffffffffffffffffffffff82169050919050565b6000819050919050565b620002da8162000291565b8114620002e657600080fd5b50565b620002f481620002c5565b81146200030057600080fd5b50565b6116a380620003136000396000f3fe608060405234801561001057600080fd5b506004361061009e5760003560e01c8063853828b611610066578063853828b6146101495780638da5cb5b14610167578063b6b55f2514610185578063c5bb8758146101b5578063f2fde38b146101d35761009e565b806323bd4d7a146100a35780632e1a7d4d146100c157806338af3eed146100f15780636be76ca11461010f578063715018a61461013f575b600080fd5b6100ab6101ef565b6040516100b8919061133c565b60405180910390f35b6100db60048036038101906100d6919061104b565b610215565b6040516100e891906113e0565b60405180910390f35b6100f9610462565b604051610106919061133c565b60405180910390f35b6101296004803603810190610124919061104b565b610488565b60405161013691906113e0565b60405180910390f35b610147610758565b005b6101516107e0565b60405161015e91906113e0565b60405180910390f35b61016f6109f2565b60405161017c919061133c565b60405180910390f35b61019f600480360381019061019a919061104b565b610a1b565b6040516101ac91906113e0565b60405180910390f35b6101bd610ddb565b6040516101ca91906114fb565b60405180910390f35b6101ed60048036038101906101e89190610ff9565b610de1565b005b600360009054906101000a900473ffffffffffffffffffffffffffffffffffffffff1681565b600061021f610ed9565b73ffffffffffffffffffffffffffffffffffffffff1661023d6109f2565b73ffffffffffffffffffffffffffffffffffffffff1614610293576040517f08c379a000000000000000000000000000000000000000000000000000000000815260040161028a906114bb565b60405180910390fd5b81600454116102d7576040517f08c379a00000000000000000000000000000000000000000000000000000000081526004016102ce9061147b565b60405180910390fd5b600160009054906101000a900473ffffffffffffffffffffffffffffffffffffffff1673ffffffffffffffffffffffffffffffffffffffff1663a9059cbb33846040518363ffffffff1660e01b81526004016103349291906113b7565b602060405180830381600087803b15801561034e57600080fd5b505af1158015610362573d6000803e3d6000fd5b505050506040513d601f19601f820116820180604052508101906103869190611022565b61038f57600080fd5b81600460008282546103a1919061157d565b925050819055503373ffffffffffffffffffffffffffffffffffffffff167f7fcf532c15f0a6db0bd6d0e038bea71d30d808c7d98cb3bf7268a95bf5081b65836040516103ee91906114fb565b60405180910390a260055460045411610459576104096109f2565b73ffffffffffffffffffffffffffffffffffffffff167f6e7a4e5f021ee43065c6892a84e7ac4bcb9de8b465d65f6be634acf2193bac8660045460405161045091906114fb565b60405180910390a25b60019050919050565b600260009054906101000a900473ffffffffffffffffffffffffffffffffffffffff1681565b6000600360009054906101000a900473ffffffffffffffffffffffffffffffffffffffff1673ffffffffffffffffffffffffffffffffffffffff163373ffffffffffffffffffffffffffffffffffffffff161461051a576040517f08c379a00000000000000000000000000000000000000000000000000000000081526004016105119061149b565b60405180910390fd5b816004541161055e576040517f08c379a00000000000000000000000000000000000000000000000000000000081526004016105559061147b565b60405180910390fd5b600160009054906101000a900473ffffffffffffffffffffffffffffffffffffffff1673ffffffffffffffffffffffffffffffffffffffff1663a9059cbb33846040518363ffffffff1660e01b81526004016105bb9291906113b7565b602060405180830381600087803b1580156105d557600080fd5b505af11580156105e9573d6000803e3d6000fd5b505050506040513d601f19601f8201168201806040525081019061060d9190611022565b61064c576040517f08c379a0000000000000000000000000000000000000000000000000000000008152600401610643906113fb565b60405180910390fd5b816004600082825461065e919061157d565b92505081905550600360009054906101000a900473ffffffffffffffffffffffffffffffffffffffff1673ffffffffffffffffffffffffffffffffffffffff163073ffffffffffffffffffffffffffffffffffffffff167f8ed7db30df47fbd87811a5e8a95a94838f0c0241263d9a1865d6a2a3e10516e2846040516106e491906114fb565b60405180910390a36005546004541161074f576106ff6109f2565b73ffffffffffffffffffffffffffffffffffffffff167f6e7a4e5f021ee43065c6892a84e7ac4bcb9de8b465d65f6be634acf2193bac8660045460405161074691906114fb565b60405180910390a25b60019050919050565b610760610ed9565b73ffffffffffffffffffffffffffffffffffffffff1661077e6109f2565b73ffffffffffffffffffffffffffffffffffffffff16146107d4576040517f08c379a00000000000000000000000000000000000000000000000000000000081526004016107cb906114bb565b60405180910390fd5b6107de6000610ee1565b565b60006107ea610ed9565b73ffffffffffffffffffffffffffffffffffffffff166108086109f2565b73ffffffffffffffffffffffffffffffffffffffff161461085e576040517f08c379a0000000000000000000000000000000000000000000000000000000008152600401610855906114bb565b60405180910390fd5b6000600454116108a3576040517f08c379a000000000000000000000000000000000000000000000000000000000815260040161089a906114db565b60405180910390fd5b600160009054906101000a900473ffffffffffffffffffffffffffffffffffffffff1673ffffffffffffffffffffffffffffffffffffffff1663a9059cbb336004546040518363ffffffff1660e01b81526004016109029291906113b7565b602060405180830381600087803b15801561091c57600080fd5b505af1158015610930573d6000803e3d6000fd5b505050506040513d601f19601f820116820180604052508101906109549190611022565b610993576040517f08c379a000000000000000000000000000000000000000000000000000000000815260040161098a9061147b565b60405180910390fd5b3373ffffffffffffffffffffffffffffffffffffffff167f7fcf532c15f0a6db0bd6d0e038bea71d30d808c7d98cb3bf7268a95bf5081b656004546040516109db91906114fb565b60405180910390a260006004819055506001905090565b60008060009054906101000a900473ffffffffffffffffffffffffffffffffffffffff16905090565b6000610a25610ed9565b73ffffffffffffffffffffffffffffffffffffffff16610a436109f2565b73ffffffffffffffffffffffffffffffffffffffff1614610a99576040517f08c379a0000000000000000000000000000000000000000000000000000000008152600401610a90906114bb565b60405180910390fd5b6005548211610add576040517f08c379a0000000000000000000000000000000000000000000000000000000008152600401610ad49061143b565b60405180910390fd5b81600160009054906101000a900473ffffffffffffffffffffffffffffffffffffffff1673ffffffffffffffffffffffffffffffffffffffff1663dd62ed3e33306040518363ffffffff1660e01b8152600401610b3b929190611357565b60206040518083038186803b158015610b5357600080fd5b505afa158015610b67573d6000803e3d6000fd5b505050506040513d601f19601f82011682018060405250810190610b8b9190611074565b1015610bcc576040517f08c379a0000000000000000000000000000000000000000000000000000000008152600401610bc39061145b565b60405180910390fd5b81600160009054906101000a900473ffffffffffffffffffffffffffffffffffffffff1673ffffffffffffffffffffffffffffffffffffffff166370a08231336040518263ffffffff1660e01b8152600401610c28919061133c565b60206040518083038186803b158015610c4057600080fd5b505afa158015610c54573d6000803e3d6000fd5b505050506040513d601f19601f82011682018060405250810190610c789190611074565b1015610cb9576040517f08c379a0000000000000000000000000000000000000000000000000000000008152600401610cb09061147b565b60405180910390fd5b600160009054906101000a900473ffffffffffffffffffffffffffffffffffffffff1673ffffffffffffffffffffffffffffffffffffffff166323b872dd3330856040518463ffffffff1660e01b8152600401610d1893929190611380565b602060405180830381600087803b158015610d3257600080fd5b505af1158015610d46573d6000803e3d6000fd5b505050506040513d601f19601f82011682018060405250810190610d6a9190611022565b508160046000828254610d7d9190611527565b925050819055503373ffffffffffffffffffffffffffffffffffffffff167fe1fffcc4923d04b559f4d29a8bfc6cda04eb5b0d3c460751c2402c5c5cc9109c83604051610dca91906114fb565b60405180910390a260019050919050565b60055481565b610de9610ed9565b73ffffffffffffffffffffffffffffffffffffffff16610e076109f2565b73ffffffffffffffffffffffffffffffffffffffff1614610e5d576040517f08c379a0000000000000000000000000000000000000000000000000000000008152600401610e54906114bb565b60405180910390fd5b600073ffffffffffffffffffffffffffffffffffffffff168173ffffffffffffffffffffffffffffffffffffffff161415610ecd576040517f08c379a0000000000000000000000000000000000000000000000000000000008152600401610ec49061141b565b60405180910390fd5b610ed681610ee1565b50565b600033905090565b60008060009054906101000a900473ffffffffffffffffffffffffffffffffffffffff169050816000806101000a81548173ffffffffffffffffffffffffffffffffffffffff021916908373ffffffffffffffffffffffffffffffffffffffff1602179055508173ffffffffffffffffffffffffffffffffffffffff168173ffffffffffffffffffffffffffffffffffffffff167f8be0079c531659141344cd1fd0a4f28419497f9722a3daafe3b4186f6b6457e060405160405180910390a35050565b600081359050610fb481611628565b92915050565b600081519050610fc98161163f565b92915050565b600081359050610fde81611656565b92915050565b600081519050610ff381611656565b92915050565b60006020828403121561100b57600080fd5b600061101984828501610fa5565b91505092915050565b60006020828403121561103457600080fd5b600061104284828501610fba565b91505092915050565b60006020828403121561105d57600080fd5b600061106b84828501610fcf565b91505092915050565b60006020828403121561108657600080fd5b600061109484828501610fe4565b91505092915050565b6110a6816115b1565b82525050565b6110b5816115c3565b82525050565b60006110c8601a83611516565b91507f556e61626c6520746f20636f6d706c657465207061796d656e740000000000006000830152602082019050919050565b6000611108602683611516565b91507f4f776e61626c653a206e6577206f776e657220697320746865207a65726f206160008301527f64647265737300000000000000000000000000000000000000000000000000006020830152604082019050919050565b600061116e602c83611516565b91507f4465706f736974206d7573742062652067726561746572207468616e2074686560008301527f206d696e2062616c616e636500000000000000000000000000000000000000006020830152604082019050919050565b60006111d4601683611516565b91507f496e73756666696369656e7420616c6c6f77616e6365000000000000000000006000830152602082019050919050565b6000611214601483611516565b91507f496e73756666696369656e742062616c616e63650000000000000000000000006000830152602082019050919050565b6000611254602c83611516565b91507f4f6e6c7920746865206f7267616e697a6174696f6e2063616e2063616c6c207460008301527f6869732066756e6374696f6e00000000000000000000000000000000000000006020830152604082019050919050565b60006112ba602083611516565b91507f4f776e61626c653a2063616c6c6572206973206e6f7420746865206f776e65726000830152602082019050919050565b60006112fa601383611516565b91507f5468657265206973206e6f2062616c616e6365000000000000000000000000006000830152602082019050919050565b611336816115ef565b82525050565b6000602082019050611351600083018461109d565b92915050565b600060408201905061136c600083018561109d565b611379602083018461109d565b9392505050565b6000606082019050611395600083018661109d565b6113a2602083018561109d565b6113af604083018461132d565b949350505050565b60006040820190506113cc600083018561109d565b6113d9602083018461132d565b9392505050565b60006020820190506113f560008301846110ac565b92915050565b60006020820190508181036000830152611414816110bb565b9050919050565b60006020820190508181036000830152611434816110fb565b9050919050565b6000602082019050818103600083015261145481611161565b9050919050565b60006020820190508181036000830152611474816111c7565b9050919050565b6000602082019050818103600083015261149481611207565b9050919050565b600060208201905081810360008301526114b481611247565b9050919050565b600060208201905081810360008301526114d4816112ad565b9050919050565b600060208201905081810360008301526114f4816112ed565b9050919050565b6000602082019050611510600083018461132d565b92915050565b600082825260208201905092915050565b6000611532826115ef565b915061153d836115ef565b9250827fffffffffffffffffffffffffffffffffffffffffffffffffffffffffffffffff03821115611572576115716115f9565b5b828201905092915050565b6000611588826115ef565b9150611593836115ef565b9250828210156115a6576115a56115f9565b5b828203905092915050565b60006115bc826115cf565b9050919050565b60008115159050919050565b600073ffffffffffffffffffffffffffffffffffffffff82169050919050565b6000819050919050565b7f4e487b7100000000000000000000000000000000000000000000000000000000600052601160045260246000fd5b611631816115b1565b811461163c57600080fd5b50565b611648816115c3565b811461165357600080fd5b50565b61165f816115ef565b811461166a57600080fd5b5056fea2646970667358221220ec4dcd51083db34f39cdae4ae165d725457ca784e3b6f3af14c34aff1554d90764736f6c63430008000033",
  "immutableReferences": {},
  "source": "// SPDX-License-Identifier: MIT\npragma solidity >=0.8.0;\n\nimport \"@openzeppelin/contracts/access/Ownable.sol\";\nimport \"./Vibra.sol\";\n\n//trust needs starting date-ending date\n//  amount is set so that it would take \"10 days\"to withdraw all of the ETH\n// there is a function that is called to update the state required to determine if a beneficiary  waited period  before attempting to withdraw from the fund again.\n\ncontract Trust is Ownable {\n    Vibra internal vibra;\n    address public beneficiary;\n    address public organization;\n    uint256 internal balance;\n    uint256 public minBalance;\n\n    modifier onlyBeneficiary() {\n        require(\n            msg.sender == beneficiary,\n            \"Only the beneficiary can call this function\"\n        );\n        _;\n    }\n\n    modifier onlyOrganization() {\n        require(\n            msg.sender == organization,\n            \"Only the organization can call this function\"\n        );\n        _;\n    }\n\n    event Payment(address indexed from, address indexed to, uint256 amount);\n    event Deposit(address indexed from, uint256 amount);\n    event Withdrawal(address indexed to, uint256 amount);\n    event LowBalance(address indexed holder, uint256 balance);\n\n    constructor(\n        address _vibra,\n        address _beneficiary,\n        address _organization,\n        uint256 _minBalance\n    ) {\n        vibra = Vibra(_vibra);\n        beneficiary = _beneficiary;\n        organization = _organization;\n        minBalance = _minBalance;\n    }\n\n    function deposit(uint256 amount) public onlyOwner returns (bool) {\n        require(\n            amount > minBalance,\n            \"Deposit must be greater than the min balance\"\n        );\n        require(\n            vibra.allowance(msg.sender, address(this)) >= amount,\n            \"Insufficient allowance\"\n        );\n        require(vibra.balanceOf(msg.sender) >= amount, \"Insufficient balance\");\n\n        vibra.transferFrom(msg.sender, address(this), amount);\n\n        balance += amount;\n        emit Deposit(msg.sender, amount);\n        return true;\n    }\n\n    function chargeFees(uint256 amount) public onlyOrganization returns (bool) {\n        require(balance > amount, \"Insufficient balance\");\n        require(\n            vibra.transfer(msg.sender, amount),\n            \"Unable to complete payment\"\n        );\n\n        balance -= amount;\n        emit Payment(address(this), organization, amount);\n\n        if (balance <= minBalance) {\n            emit LowBalance(owner(), balance);\n        }\n        return true;\n    }\n\n    function withdraw(uint256 amount) public onlyOwner returns (bool) {\n        require(balance > amount, \"Insufficient balance\");\n        require(vibra.transfer(msg.sender, amount));\n\n        balance -= amount;\n        emit Withdrawal(msg.sender, amount);\n\n        if (balance <= minBalance) {\n            emit LowBalance(owner(), balance);\n        }\n\n        return true;\n    }\n\n    function withdrawAll() public onlyOwner returns (bool) {\n        require(balance > 0, \"There is no balance\");\n        require(vibra.transfer(msg.sender, balance), \"Insufficient balance\");\n\n        emit Withdrawal(msg.sender, balance);\n        balance = 0;\n        return true;\n    }\n}",
  "sourcePath": "/Users/angelicacolon/Desktop/Vibra-Finance/contracts/Trust.sol",
  "compiler": {
    "name": "solc",
    "version": "0.8.0+commit.c7dfd78e.Emscripten.clang"
  },
  "schemaVersion": "3.4.1",
  "updatedAt": "2021-12-11T12:37:37.460Z",
  "devdoc": {
    "kind": "dev",
    "methods": {
      "owner()": {
        "details": "Returns the address of the current owner."
      },
      "renounceOwnership()": {
        "details": "Leaves the contract without owner. It will not be possible to call `onlyOwner` functions anymore. Can only be called by the current owner. NOTE: Renouncing ownership will leave the contract without an owner, thereby removing any functionality that is only available to the owner."
      },
      "transferOwnership(address)": {
        "details": "Transfers ownership of the contract to a new account (`newOwner`). Can only be called by the current owner."
      }
    },
    "version": 1
  },
  "userdoc": {
    "kind": "user",
    "methods": {},
    "version": 1
  }
}