{
  "contractName": "WebShop",
  "abi": [
    {
      "inputs": [
        {
          "internalType": "address",
          "name": "_vibra",
          "type": "address"
        },
        {
          "internalType": "string",
          "name": "_name",
          "type": "string"
        }
      ],
      "stateMutability": "nonpayable",
      "type": "constructor"
    },
    {
      "anonymous": false,
      "inputs": [
        {
          "indexed": true,
          "internalType": "address",
          "name": "owner",
          "type": "address"
        },
        {
          "indexed": false,
          "internalType": "uint256",
          "name": "itemId",
          "type": "uint256"
        }
      ],
      "name": "AddItem",
      "type": "event"
    },
    {
      "anonymous": false,
      "inputs": [
        {
          "indexed": true,
          "internalType": "address",
          "name": "owner",
          "type": "address"
        },
        {
          "indexed": true,
          "internalType": "address",
          "name": "approved",
          "type": "address"
        },
        {
          "indexed": true,
          "internalType": "uint256",
          "name": "tokenId",
          "type": "uint256"
        }
      ],
      "name": "Approval",
      "type": "event"
    },
    {
      "anonymous": false,
      "inputs": [
        {
          "indexed": true,
          "internalType": "address",
          "name": "owner",
          "type": "address"
        },
        {
          "indexed": true,
          "internalType": "address",
          "name": "operator",
          "type": "address"
        },
        {
          "indexed": false,
          "internalType": "bool",
          "name": "approved",
          "type": "bool"
        }
      ],
      "name": "ApprovalForAll",
      "type": "event"
    },
    {
      "anonymous": false,
      "inputs": [
        {
          "indexed": true,
          "internalType": "address",
          "name": "buyer",
          "type": "address"
        },
        {
          "indexed": true,
          "internalType": "address",
          "name": "owner",
          "type": "address"
        },
        {
          "indexed": false,
          "internalType": "uint256",
          "name": "value",
          "type": "uint256"
        }
      ],
      "name": "CreateEscrow",
      "type": "event"
    },
    {
      "anonymous": false,
      "inputs": [
        {
          "indexed": true,
          "internalType": "address",
          "name": "owner",
          "type": "address"
        },
        {
          "indexed": true,
          "internalType": "enum WebShop.ItemStatus",
          "name": "itemStatus",
          "type": "uint8"
        },
        {
          "indexed": false,
          "internalType": "uint256",
          "name": "itemId",
          "type": "uint256"
        }
      ],
      "name": "ItemStep",
      "type": "event"
    },
    {
      "anonymous": false,
      "inputs": [
        {
          "indexed": true,
          "internalType": "address",
          "name": "previousOwner",
          "type": "address"
        },
        {
          "indexed": true,
          "internalType": "address",
          "name": "newOwner",
          "type": "address"
        }
      ],
      "name": "OwnershipTransferred",
      "type": "event"
    },
    {
      "anonymous": false,
      "inputs": [
        {
          "indexed": true,
          "internalType": "address",
          "name": "owner",
          "type": "address"
        },
        {
          "indexed": true,
          "internalType": "address",
          "name": "buyer",
          "type": "address"
        },
        {
          "indexed": false,
          "internalType": "uint256",
          "name": "price",
          "type": "uint256"
        }
      ],
      "name": "Sale",
      "type": "event"
    },
    {
      "anonymous": false,
      "inputs": [
        {
          "indexed": true,
          "internalType": "address",
          "name": "from",
          "type": "address"
        },
        {
          "indexed": true,
          "internalType": "address",
          "name": "to",
          "type": "address"
        },
        {
          "indexed": true,
          "internalType": "uint256",
          "name": "tokenId",
          "type": "uint256"
        }
      ],
      "name": "Transfer",
      "type": "event"
    },
    {
      "inputs": [
        {
          "internalType": "address",
          "name": "to",
          "type": "address"
        },
        {
          "internalType": "uint256",
          "name": "tokenId",
          "type": "uint256"
        }
      ],
      "name": "approve",
      "outputs": [],
      "stateMutability": "nonpayable",
      "type": "function"
    },
    {
      "inputs": [
        {
          "internalType": "address",
          "name": "owner",
          "type": "address"
        }
      ],
      "name": "balanceOf",
      "outputs": [
        {
          "internalType": "uint256",
          "name": "",
          "type": "uint256"
        }
      ],
      "stateMutability": "view",
      "type": "function"
    },
    {
      "inputs": [
        {
          "internalType": "uint256",
          "name": "tokenId",
          "type": "uint256"
        }
      ],
      "name": "getApproved",
      "outputs": [
        {
          "internalType": "address",
          "name": "",
          "type": "address"
        }
      ],
      "stateMutability": "view",
      "type": "function"
    },
    {
      "inputs": [
        {
          "internalType": "address",
          "name": "owner",
          "type": "address"
        },
        {
          "internalType": "address",
          "name": "operator",
          "type": "address"
        }
      ],
      "name": "isApprovedForAll",
      "outputs": [
        {
          "internalType": "bool",
          "name": "",
          "type": "bool"
        }
      ],
      "stateMutability": "view",
      "type": "function"
    },
    {
      "inputs": [],
      "name": "name",
      "outputs": [
        {
          "internalType": "string",
          "name": "",
          "type": "string"
        }
      ],
      "stateMutability": "view",
      "type": "function"
    },
    {
      "inputs": [],
      "name": "names",
      "outputs": [
        {
          "internalType": "string",
          "name": "",
          "type": "string"
        }
      ],
      "stateMutability": "view",
      "type": "function"
    },
    {
      "inputs": [],
      "name": "owner",
      "outputs": [
        {
          "internalType": "address",
          "name": "",
          "type": "address"
        }
      ],
      "stateMutability": "view",
      "type": "function"
    },
    {
      "inputs": [
        {
          "internalType": "uint256",
          "name": "tokenId",
          "type": "uint256"
        }
      ],
      "name": "ownerOf",
      "outputs": [
        {
          "internalType": "address",
          "name": "",
          "type": "address"
        }
      ],
      "stateMutability": "view",
      "type": "function"
    },
    {
      "inputs": [],
      "name": "renounceOwnership",
      "outputs": [],
      "stateMutability": "nonpayable",
      "type": "function"
    },
    {
      "inputs": [
        {
          "internalType": "address",
          "name": "from",
          "type": "address"
        },
        {
          "internalType": "address",
          "name": "to",
          "type": "address"
        },
        {
          "internalType": "uint256",
          "name": "tokenId",
          "type": "uint256"
        }
      ],
      "name": "safeTransferFrom",
      "outputs": [],
      "stateMutability": "nonpayable",
      "type": "function"
    },
    {
      "inputs": [
        {
          "internalType": "address",
          "name": "from",
          "type": "address"
        },
        {
          "internalType": "address",
          "name": "to",
          "type": "address"
        },
        {
          "internalType": "uint256",
          "name": "tokenId",
          "type": "uint256"
        },
        {
          "internalType": "bytes",
          "name": "_data",
          "type": "bytes"
        }
      ],
      "name": "safeTransferFrom",
      "outputs": [],
      "stateMutability": "nonpayable",
      "type": "function"
    },
    {
      "inputs": [
        {
          "internalType": "address",
          "name": "operator",
          "type": "address"
        },
        {
          "internalType": "bool",
          "name": "approved",
          "type": "bool"
        }
      ],
      "name": "setApprovalForAll",
      "outputs": [],
      "stateMutability": "nonpayable",
      "type": "function"
    },
    {
      "inputs": [],
      "name": "status",
      "outputs": [
        {
          "internalType": "enum WebShop.ShopStatus",
          "name": "",
          "type": "uint8"
        }
      ],
      "stateMutability": "view",
      "type": "function"
    },
    {
      "inputs": [
        {
          "internalType": "bytes4",
          "name": "interfaceId",
          "type": "bytes4"
        }
      ],
      "name": "supportsInterface",
      "outputs": [
        {
          "internalType": "bool",
          "name": "",
          "type": "bool"
        }
      ],
      "stateMutability": "view",
      "type": "function"
    },
    {
      "inputs": [],
      "name": "symbol",
      "outputs": [
        {
          "internalType": "string",
          "name": "",
          "type": "string"
        }
      ],
      "stateMutability": "view",
      "type": "function"
    },
    {
      "inputs": [
        {
          "internalType": "address",
          "name": "from",
          "type": "address"
        },
        {
          "internalType": "address",
          "name": "to",
          "type": "address"
        },
        {
          "internalType": "uint256",
          "name": "tokenId",
          "type": "uint256"
        }
      ],
      "name": "transferFrom",
      "outputs": [],
      "stateMutability": "nonpayable",
      "type": "function"
    },
    {
      "inputs": [
        {
          "internalType": "address",
          "name": "newOwner",
          "type": "address"
        }
      ],
      "name": "transferOwnership",
      "outputs": [],
      "stateMutability": "nonpayable",
      "type": "function"
    },
    {
      "inputs": [],
      "name": "getItemCount",
      "outputs": [
        {
          "internalType": "uint256",
          "name": "",
          "type": "uint256"
        }
      ],
      "stateMutability": "view",
      "type": "function"
    },
    {
      "inputs": [
        {
          "internalType": "uint256",
          "name": "_id",
          "type": "uint256"
        }
      ],
      "name": "getItemById",
      "outputs": [
        {
          "components": [
            {
              "internalType": "uint256",
              "name": "id",
              "type": "uint256"
            },
            {
              "internalType": "string",
              "name": "names",
              "type": "string"
            },
            {
              "internalType": "uint256",
              "name": "price",
              "type": "uint256"
            },
            {
              "internalType": "string",
              "name": "url",
              "type": "string"
            },
            {
              "internalType": "address",
              "name": "creator",
              "type": "address"
            },
            {
              "internalType": "address",
              "name": "owner",
              "type": "address"
            },
            {
              "internalType": "string",
              "name": "trackingNumber",
              "type": "string"
            },
            {
              "internalType": "address",
              "name": "escrow",
              "type": "address"
            },
            {
              "internalType": "enum WebShop.ItemType",
              "name": "itemType",
              "type": "uint8"
            },
            {
              "internalType": "enum WebShop.ItemStatus",
              "name": "itemStatus",
              "type": "uint8"
            }
          ],
          "internalType": "struct WebShop.Item",
          "name": "",
          "type": "tuple"
        }
      ],
      "stateMutability": "view",
      "type": "function"
    },
    {
      "inputs": [],
      "name": "getAllItems",
      "outputs": [
        {
          "components": [
            {
              "internalType": "uint256",
              "name": "id",
              "type": "uint256"
            },
            {
              "internalType": "string",
              "name": "names",
              "type": "string"
            },
            {
              "internalType": "uint256",
              "name": "price",
              "type": "uint256"
            },
            {
              "internalType": "string",
              "name": "url",
              "type": "string"
            },
            {
              "internalType": "address",
              "name": "creator",
              "type": "address"
            },
            {
              "internalType": "address",
              "name": "owner",
              "type": "address"
            },
            {
              "internalType": "string",
              "name": "trackingNumber",
              "type": "string"
            },
            {
              "internalType": "address",
              "name": "escrow",
              "type": "address"
            },
            {
              "internalType": "enum WebShop.ItemType",
              "name": "itemType",
              "type": "uint8"
            },
            {
              "internalType": "enum WebShop.ItemStatus",
              "name": "itemStatus",
              "type": "uint8"
            }
          ],
          "internalType": "struct WebShop.Item[]",
          "name": "",
          "type": "tuple[]"
        }
      ],
      "stateMutability": "view",
      "type": "function"
    },
    {
      "inputs": [
        {
          "internalType": "uint256",
          "name": "_id",
          "type": "uint256"
        }
      ],
      "name": "buyItem",
      "outputs": [],
      "stateMutability": "nonpayable",
      "type": "function"
    },
    {
      "inputs": [
        {
          "internalType": "string",
          "name": "_name",
          "type": "string"
        },
        {
          "internalType": "uint256",
          "name": "_price",
          "type": "uint256"
        },
        {
          "internalType": "string",
          "name": "_url",
          "type": "string"
        },
        {
          "internalType": "enum WebShop.ItemType",
          "name": "_type",
          "type": "uint8"
        }
      ],
      "name": "addItem",
      "outputs": [
        {
          "internalType": "bool",
          "name": "",
          "type": "bool"
        }
      ],
      "stateMutability": "nonpayable",
      "type": "function"
    },
    {
      "inputs": [
        {
          "components": [
            {
              "internalType": "uint256",
              "name": "id",
              "type": "uint256"
            },
            {
              "internalType": "string",
              "name": "names",
              "type": "string"
            },
            {
              "internalType": "uint256",
              "name": "price",
              "type": "uint256"
            },
            {
              "internalType": "string",
              "name": "url",
              "type": "string"
            },
            {
              "internalType": "address",
              "name": "creator",
              "type": "address"
            },
            {
              "internalType": "address",
              "name": "owner",
              "type": "address"
            },
            {
              "internalType": "string",
              "name": "trackingNumber",
              "type": "string"
            },
            {
              "internalType": "address",
              "name": "escrow",
              "type": "address"
            },
            {
              "internalType": "enum WebShop.ItemType",
              "name": "itemType",
              "type": "uint8"
            },
            {
              "internalType": "enum WebShop.ItemStatus",
              "name": "itemStatus",
              "type": "uint8"
            }
          ],
          "internalType": "struct WebShop.Item[]",
          "name": "_items",
          "type": "tuple[]"
        }
      ],
      "name": "addItems",
      "outputs": [],
      "stateMutability": "nonpayable",
      "type": "function"
    },
    {
      "inputs": [
        {
          "internalType": "address",
          "name": "to",
          "type": "address"
        },
        {
          "internalType": "string",
          "name": "uri",
          "type": "string"
        }
      ],
      "name": "safeMint",
      "outputs": [],
      "stateMutability": "nonpayable",
      "type": "function"
    },
    {
      "inputs": [
        {
          "internalType": "uint256",
          "name": "tokenId",
          "type": "uint256"
        }
      ],
      "name": "tokenURI",
      "outputs": [
        {
          "internalType": "string",
          "name": "",
          "type": "string"
        }
      ],
      "stateMutability": "view",
      "type": "function"
    },
    {
      "inputs": [
        {
          "internalType": "uint256",
          "name": "_id",
          "type": "uint256"
        },
        {
          "internalType": "string",
          "name": "_trackingNbr",
          "type": "string"
        }
      ],
      "name": "addTrackingNumber",
      "outputs": [],
      "stateMutability": "nonpayable",
      "type": "function"
    },
    {
      "inputs": [
        {
          "internalType": "uint256",
          "name": "_id",
          "type": "uint256"
        },
        {
          "internalType": "address",
          "name": "_escrow",
          "type": "address"
        }
      ],
      "name": "confirmDeliveryOfItem",
      "outputs": [],
      "stateMutability": "nonpayable",
      "type": "function"
    }
  ],
  "bytecode": "0x60a06040523480156200001157600080fd5b50604051620080723803806200807283398181016040528101906200003791906200033d565b6040518060400160405280600781526020017f4d79546f6b656e000000000000000000000000000000000000000000000000008152506040518060400160405280600381526020017f4d544b00000000000000000000000000000000000000000000000000000000008152508160009080519060200190620000bb92919062000204565b508060019080519060200190620000d492919062000204565b505050620000f7620000eb6200013660201b60201c565b6200013e60201b60201c565b8173ffffffffffffffffffffffffffffffffffffffff1660808173ffffffffffffffffffffffffffffffffffffffff1660601b81525050505062000516565b600033905090565b6000600760009054906101000a900473ffffffffffffffffffffffffffffffffffffffff16905081600760006101000a81548173ffffffffffffffffffffffffffffffffffffffff021916908373ffffffffffffffffffffffffffffffffffffffff1602179055508173ffffffffffffffffffffffffffffffffffffffff168173ffffffffffffffffffffffffffffffffffffffff167f8be0079c531659141344cd1fd0a4f28419497f9722a3daafe3b4186f6b6457e060405160405180910390a35050565b828054620002129062000468565b90600052602060002090601f01602090048101928262000236576000855562000282565b82601f106200025157805160ff191683800117855562000282565b8280016001018555821562000282579182015b828111156200028157825182559160200191906001019062000264565b5b50905062000291919062000295565b5090565b5b80821115620002b057600081600090555060010162000296565b5090565b6000620002cb620002c584620003cb565b62000397565b905082815260208101848484011115620002e457600080fd5b620002f184828562000432565b509392505050565b6000815190506200030a81620004fc565b92915050565b600082601f8301126200032257600080fd5b815162000334848260208601620002b4565b91505092915050565b600080604083850312156200035157600080fd5b60006200036185828601620002f9565b925050602083015167ffffffffffffffff8111156200037f57600080fd5b6200038d8582860162000310565b9150509250929050565b6000604051905081810181811067ffffffffffffffff82111715620003c157620003c0620004cd565b5b8060405250919050565b600067ffffffffffffffff821115620003e957620003e8620004cd565b5b601f19601f8301169050602081019050919050565b60006200040b8262000412565b9050919050565b600073ffffffffffffffffffffffffffffffffffffffff82169050919050565b60005b838110156200045257808201518184015260208101905062000435565b8381111562000462576000848401525b50505050565b600060028204905060018216806200048157607f821691505b602082108114156200049857620004976200049e565b5b50919050565b7f4e487b7100000000000000000000000000000000000000000000000000000000600052602260045260246000fd5b7f4e487b7100000000000000000000000000000000000000000000000000000000600052604160045260246000fd5b6200050781620003fe565b81146200051357600080fd5b50565b60805160601c617b286200054a6000396000818161250a01528181612601015281816128b101526136f70152617b286000f3fe60806040523480156200001157600080fd5b5060043610620001d25760003560e01c80637749cf231162000111578063c87b56dd11620000a5578063d74e34a2116200007b578063d74e34a2146200054b578063e7fb74c7146200056b578063e985e9c5146200058b578063f2fde38b14620005c157620001d2565b8063c87b56dd14620004bf578063cd2f071014620004f5578063d204c45e146200052b57620001d2565b806395d89b4111620000e757806395d89b41146200043d578063a22cb465146200045f578063b7515335146200047f578063b88d4fde146200049f57620001d2565b80637749cf2314620003d957806378cf1bda14620003fb5780638da5cb5b146200041b57620001d2565b8063200d2ed211620001895780634ba1d6aa116200015f5780634ba1d6aa146200033f5780636352211e146200036157806370a082311462000397578063715018a614620003cd57620001d2565b8063200d2ed214620002dd57806323b872dd14620002ff57806342842e0e146200031f57620001d2565b806301ffc9a714620001d7578063056da048146200020d57806306fdde03146200022f578063081812fc1462000251578063095ea7b314620002875780630a30913914620002a7575b600080fd5b620001f56004803603810190620001ef9190620047ee565b620005e1565b60405162000204919062005892565b60405180910390f35b62000217620006c7565b604051620002269190620058cc565b60405180910390f35b620002396200075d565b604051620002489190620058cc565b60405180910390f35b6200026f600480360381019062000269919062004910565b620007f7565b6040516200027e919062005746565b60405180910390f35b620002a560048036038101906200029f91906200473c565b62000881565b005b620002c56004803603810190620002bf919062004872565b620009aa565b604051620002d4919062005892565b60405180910390f35b620002e762000e39565b604051620002f69190620058af565b60405180910390f35b6200031d6004803603810190620003179190620045c6565b62000e4c565b005b6200033d6004803603810190620003379190620045c6565b62000eb5565b005b6200034962000ed7565b6040516200035891906200586e565b60405180910390f35b6200037f600480360381019062000379919062004910565b6200132f565b6040516200038e919062005746565b60405180910390f35b620003b56004803603810190620003af919062004559565b620013e4565b604051620003c4919062005caa565b60405180910390f35b620003d76200149f565b005b620003e362001530565b604051620003f2919062005caa565b60405180910390f35b620004196004803603810190620004139190620049a9565b6200153d565b005b620004256200180d565b60405162000434919062005746565b60405180910390f35b6200044762001837565b604051620004569190620058cc565b60405180910390f35b6200047d6004803603810190620004779190620046a1565b620018d1565b005b6200049d600480360381019062000497919062004968565b620018eb565b005b620004bd6004803603810190620004b791906200461c565b62001bb7565b005b620004dd6004803603810190620004d7919062004910565b62001c22565b604051620004ec9190620058cc565b60405180910390f35b6200051360048036038101906200050d919062004910565b62001c36565b60405162000522919062005c86565b60405180910390f35b620005496004803603810190620005439190620046e2565b62002092565b005b6200056960048036038101906200056391906200477d565b6200214e565b005b62000589600480360381019062000583919062004910565b620024b6565b005b620005a96004803603810190620005a3919062004585565b62002ade565b604051620005b8919062005892565b60405180910390f35b620005df6004803603810190620005d9919062004559565b62002b72565b005b60007f80ac58cd000000000000000000000000000000000000000000000000000000007bffffffffffffffffffffffffffffffffffffffffffffffffffffffff1916827bffffffffffffffffffffffffffffffffffffffffffffffffffffffff19161480620006ad57507f5b5e139f000000000000000000000000000000000000000000000000000000007bffffffffffffffffffffffffffffffffffffffffffffffffffffffff1916827bffffffffffffffffffffffffffffffffffffffffffffffffffffffff1916145b80620006c05750620006bf8262002c76565b5b9050919050565b60088054620006d69062006023565b80601f0160208091040260200160405190810160405280929190818152602001828054620007049062006023565b8015620007555780601f10620007295761010080835404028352916020019162000755565b820191906000526020600020905b8154815290600101906020018083116200073757829003601f168201915b505050505081565b6060600080546200076e9062006023565b80601f01602080910402602001604051908101604052809291908181526020018280546200079c9062006023565b8015620007ed5780601f10620007c157610100808354040283529160200191620007ed565b820191906000526020600020905b815481529060010190602001808311620007cf57829003601f168201915b5050505050905090565b6000620008048262002ce0565b62000846576040517f08c379a00000000000000000000000000000000000000000000000000000000081526004016200083d9062005b54565b60405180910390fd5b6004600083815260200190815260200160002060009054906101000a900473ffffffffffffffffffffffffffffffffffffffff169050919050565b60006200088e826200132f565b90508073ffffffffffffffffffffffffffffffffffffffff168373ffffffffffffffffffffffffffffffffffffffff16141562000902576040517f08c379a0000000000000000000000000000000000000000000000000000000008152600401620008f99062005c20565b60405180910390fd5b8073ffffffffffffffffffffffffffffffffffffffff166200092362002d4c565b73ffffffffffffffffffffffffffffffffffffffff16148062000957575062000956816200095062002d4c565b62002ade565b5b62000999576040517f08c379a0000000000000000000000000000000000000000000000000000000008152600401620009909062005a22565b60405180910390fd5b620009a5838362002d54565b505050565b6000600280811115620009e6577f4e487b7100000000000000000000000000000000000000000000000000000000600052602160045260246000fd5b600760149054906101000a900460ff16600281111562000a2f577f4e487b7100000000000000000000000000000000000000000000000000000000600052602160045260246000fd5b141562000a73576040517f08c379a000000000000000000000000000000000000000000000000000000000815260040162000a6a9062005b98565b60405180910390fd5b600c6040518061014001604052806001600c8054905062000a95919062005e1d565b815260200187815260200186815260200185815260200162000ab66200180d565b73ffffffffffffffffffffffffffffffffffffffff16815260200162000adb6200180d565b73ffffffffffffffffffffffffffffffffffffffff168152602001604051806020016040528060008152508152602001600073ffffffffffffffffffffffffffffffffffffffff16815260200184600181111562000b62577f4e487b7100000000000000000000000000000000000000000000000000000000600052602160045260246000fd5b81526020016000600381111562000ba2577f4e487b7100000000000000000000000000000000000000000000000000000000600052602160045260246000fd5b815250908060018154018082558091505060019003906000526020600020906008020160009091909190915060008201518160000155602082015181600101908051906020019062000bf692919062003fe4565b5060408201518160020155606082015181600301908051906020019062000c1f92919062003fe4565b5060808201518160040160006101000a81548173ffffffffffffffffffffffffffffffffffffffff021916908373ffffffffffffffffffffffffffffffffffffffff16021790555060a08201518160050160006101000a81548173ffffffffffffffffffffffffffffffffffffffff021916908373ffffffffffffffffffffffffffffffffffffffff16021790555060c082015181600601908051906020019062000ccc92919062003fe4565b5060e08201518160070160006101000a81548173ffffffffffffffffffffffffffffffffffffffff021916908373ffffffffffffffffffffffffffffffffffffffff1602179055506101008201518160070160146101000a81548160ff0219169083600181111562000d67577f4e487b7100000000000000000000000000000000000000000000000000000000600052602160045260246000fd5b02179055506101208201518160070160156101000a81548160ff0219169083600381111562000dbf577f4e487b7100000000000000000000000000000000000000000000000000000000600052602160045260246000fd5b0217905550505062000dd06200180d565b73ffffffffffffffffffffffffffffffffffffffff167ff69602bce525a4f2b759a43b29d6ad69b0702bfa02ae9142e60b58b15caff82960095460405162000e19919062005caa565b60405180910390a262000e2d600a62002e0f565b60019050949350505050565b600760149054906101000a900460ff1681565b62000e6162000e5a62002d4c565b8262002e25565b62000ea3576040517f08c379a000000000000000000000000000000000000000000000000000000000815260040162000e9a9062005c42565b60405180910390fd5b62000eb083838362002f10565b505050565b62000ed28383836040518060200160405280600081525062001bb7565b505050565b6060600c805480602002602001604051908101604052809291908181526020016000905b82821015620013265783829060005260206000209060080201604051806101400160405290816000820154815260200160018201805462000f3c9062006023565b80601f016020809104026020016040519081016040528092919081815260200182805462000f6a9062006023565b801562000fbb5780601f1062000f8f5761010080835404028352916020019162000fbb565b820191906000526020600020905b81548152906001019060200180831162000f9d57829003601f168201915b505050505081526020016002820154815260200160038201805462000fe09062006023565b80601f01602080910402602001604051908101604052809291908181526020018280546200100e9062006023565b80156200105f5780601f1062001033576101008083540402835291602001916200105f565b820191906000526020600020905b8154815290600101906020018083116200104157829003601f168201915b505050505081526020016004820160009054906101000a900473ffffffffffffffffffffffffffffffffffffffff1673ffffffffffffffffffffffffffffffffffffffff1673ffffffffffffffffffffffffffffffffffffffff1681526020016005820160009054906101000a900473ffffffffffffffffffffffffffffffffffffffff1673ffffffffffffffffffffffffffffffffffffffff1673ffffffffffffffffffffffffffffffffffffffff168152602001600682018054620011269062006023565b80601f0160208091040260200160405190810160405280929190818152602001828054620011549062006023565b8015620011a55780601f106200117957610100808354040283529160200191620011a5565b820191906000526020600020905b8154815290600101906020018083116200118757829003601f168201915b505050505081526020016007820160009054906101000a900473ffffffffffffffffffffffffffffffffffffffff1673ffffffffffffffffffffffffffffffffffffffff1673ffffffffffffffffffffffffffffffffffffffff1681526020016007820160149054906101000a900460ff16600181111562001250577f4e487b7100000000000000000000000000000000000000000000000000000000600052602160045260246000fd5b600181111562001289577f4e487b7100000000000000000000000000000000000000000000000000000000600052602160045260246000fd5b81526020016007820160159054906101000a900460ff166003811115620012d9577f4e487b7100000000000000000000000000000000000000000000000000000000600052602160045260246000fd5b600381111562001312577f4e487b7100000000000000000000000000000000000000000000000000000000600052602160045260246000fd5b815250508152602001906001019062000efb565b50505050905090565b6000806002600084815260200190815260200160002060009054906101000a900473ffffffffffffffffffffffffffffffffffffffff169050600073ffffffffffffffffffffffffffffffffffffffff168173ffffffffffffffffffffffffffffffffffffffff161415620013db576040517f08c379a0000000000000000000000000000000000000000000000000000000008152600401620013d29062005a88565b60405180910390fd5b80915050919050565b60008073ffffffffffffffffffffffffffffffffffffffff168273ffffffffffffffffffffffffffffffffffffffff16141562001458576040517f08c379a00000000000000000000000000000000000000000000000000000000081526004016200144f9062005a66565b60405180910390fd5b600360008373ffffffffffffffffffffffffffffffffffffffff1673ffffffffffffffffffffffffffffffffffffffff168152602001908152602001600020549050919050565b620014a962002d4c565b73ffffffffffffffffffffffffffffffffffffffff16620014c96200180d565b73ffffffffffffffffffffffffffffffffffffffff161462001522576040517f08c379a0000000000000000000000000000000000000000000000000000000008152600401620015199062005b76565b60405180910390fd5b6200152e60006200317c565b565b6000600c80549050905090565b6200154762002d4c565b73ffffffffffffffffffffffffffffffffffffffff16620015676200180d565b73ffffffffffffffffffffffffffffffffffffffff1614620015c0576040517f08c379a0000000000000000000000000000000000000000000000000000000008152600401620015b79062005b76565b60405180910390fd5b6000600c8381548110620015fd577f4e487b7100000000000000000000000000000000000000000000000000000000600052603260045260246000fd5b906000526020600020906008020190506002600381111562001648577f4e487b7100000000000000000000000000000000000000000000000000000000600052602160045260246000fd5b8160070160159054906101000a900460ff16600381111562001693577f4e487b7100000000000000000000000000000000000000000000000000000000600052602160045260246000fd5b14620016d6576040517f08c379a0000000000000000000000000000000000000000000000000000000008152600401620016cd9062005acc565b60405180910390fd5b81816006019080519060200190620016f092919062003fe4565b5060028160070160156101000a81548160ff0219169083600381111562001740577f4e487b7100000000000000000000000000000000000000000000000000000000600052602160045260246000fd5b02179055508060070160159054906101000a900460ff16600381111562001790577f4e487b7100000000000000000000000000000000000000000000000000000000600052602160045260246000fd5b8160050160009054906101000a900473ffffffffffffffffffffffffffffffffffffffff1673ffffffffffffffffffffffffffffffffffffffff167f06ab270e9b476657eafc6faef4c578510783fab558ca0f5d2cb0ff5da1c0a955836000015460405162001800919062005caa565b60405180910390a3505050565b6000600760009054906101000a900473ffffffffffffffffffffffffffffffffffffffff16905090565b606060018054620018489062006023565b80601f0160208091040260200160405190810160405280929190818152602001828054620018769062006023565b8015620018c75780601f106200189b57610100808354040283529160200191620018c7565b820191906000526020600020905b815481529060010190602001808311620018a957829003601f168201915b5050505050905090565b620018e7620018df62002d4c565b838362003242565b5050565b8073ffffffffffffffffffffffffffffffffffffffff16600c83815481106200193d577f4e487b7100000000000000000000000000000000000000000000000000000000600052603260045260246000fd5b906000526020600020906008020160070160009054906101000a900473ffffffffffffffffffffffffffffffffffffffff1673ffffffffffffffffffffffffffffffffffffffff1614620019c8576040517f08c379a0000000000000000000000000000000000000000000000000000000008152600401620019bf9062005aee565b60405180910390fd5b600081905060048081111562001a07577f4e487b7100000000000000000000000000000000000000000000000000000000600052602160045260246000fd5b8173ffffffffffffffffffffffffffffffffffffffff1663c19d93fb6040518163ffffffff1660e01b815260040160206040518083038186803b15801562001a4e57600080fd5b505afa15801562001a63573d6000803e3d6000fd5b505050506040513d601f19601f8201168201806040525081019062001a89919062004846565b600481111562001ac2577f4e487b7100000000000000000000000000000000000000000000000000000000600052602160045260246000fd5b1462001acd57600080fd5b6000600c848154811062001b0a577f4e487b7100000000000000000000000000000000000000000000000000000000600052603260045260246000fd5b90600052602060002090600802019050338160050160006101000a81548173ffffffffffffffffffffffffffffffffffffffff021916908373ffffffffffffffffffffffffffffffffffffffff16021790555060018160070160156101000a81548160ff0219169083600381111562001bac577f4e487b7100000000000000000000000000000000000000000000000000000000600052602160045260246000fd5b021790555050505050565b62001bcc62001bc562002d4c565b8362002e25565b62001c0e576040517f08c379a000000000000000000000000000000000000000000000000000000000815260040162001c059062005c42565b60405180910390fd5b62001c1c84848484620033b4565b50505050565b606062001c2f8262003417565b9050919050565b62001c4062004075565b600c828154811062001c7b577f4e487b7100000000000000000000000000000000000000000000000000000000600052603260045260246000fd5b9060005260206000209060080201604051806101400160405290816000820154815260200160018201805462001cb19062006023565b80601f016020809104026020016040519081016040528092919081815260200182805462001cdf9062006023565b801562001d305780601f1062001d045761010080835404028352916020019162001d30565b820191906000526020600020905b81548152906001019060200180831162001d1257829003601f168201915b505050505081526020016002820154815260200160038201805462001d559062006023565b80601f016020809104026020016040519081016040528092919081815260200182805462001d839062006023565b801562001dd45780601f1062001da85761010080835404028352916020019162001dd4565b820191906000526020600020905b81548152906001019060200180831162001db657829003601f168201915b505050505081526020016004820160009054906101000a900473ffffffffffffffffffffffffffffffffffffffff1673ffffffffffffffffffffffffffffffffffffffff1673ffffffffffffffffffffffffffffffffffffffff1681526020016005820160009054906101000a900473ffffffffffffffffffffffffffffffffffffffff1673ffffffffffffffffffffffffffffffffffffffff1673ffffffffffffffffffffffffffffffffffffffff16815260200160068201805462001e9b9062006023565b80601f016020809104026020016040519081016040528092919081815260200182805462001ec99062006023565b801562001f1a5780601f1062001eee5761010080835404028352916020019162001f1a565b820191906000526020600020905b81548152906001019060200180831162001efc57829003601f168201915b505050505081526020016007820160009054906101000a900473ffffffffffffffffffffffffffffffffffffffff1673ffffffffffffffffffffffffffffffffffffffff1673ffffffffffffffffffffffffffffffffffffffff1681526020016007820160149054906101000a900460ff16600181111562001fc5577f4e487b7100000000000000000000000000000000000000000000000000000000600052602160045260246000fd5b600181111562001ffe577f4e487b7100000000000000000000000000000000000000000000000000000000600052602160045260246000fd5b81526020016007820160159054906101000a900460ff1660038111156200204e577f4e487b7100000000000000000000000000000000000000000000000000000000600052602160045260246000fd5b600381111562002087577f4e487b7100000000000000000000000000000000000000000000000000000000600052602160045260246000fd5b815250509050919050565b6200209c62002d4c565b73ffffffffffffffffffffffffffffffffffffffff16620020bc6200180d565b73ffffffffffffffffffffffffffffffffffffffff161462002115576040517f08c379a00000000000000000000000000000000000000000000000000000000081526004016200210c9062005b76565b60405180910390fd5b600062002123600a62003580565b905062002131600a62002e0f565b6200213d83826200358e565b620021498183620035ae565b505050565b6200215862002d4c565b73ffffffffffffffffffffffffffffffffffffffff16620021786200180d565b73ffffffffffffffffffffffffffffffffffffffff1614620021d1576040517f08c379a0000000000000000000000000000000000000000000000000000000008152600401620021c89062005b76565b60405180910390fd5b600081511162002218576040517f08c379a00000000000000000000000000000000000000000000000000000000081526004016200220f9062005c64565b60405180910390fd5b60005b8151811015620024b257600082828151811062002261577f4e487b7100000000000000000000000000000000000000000000000000000000600052603260045260246000fd5b60200260200101519050600c819080600181540180825580915050600190039060005260206000209060080201600090919091909150600082015181600001556020820151816001019080519060200190620022bf92919062003fe4565b50604082015181600201556060820151816003019080519060200190620022e892919062003fe4565b5060808201518160040160006101000a81548173ffffffffffffffffffffffffffffffffffffffff021916908373ffffffffffffffffffffffffffffffffffffffff16021790555060a08201518160050160006101000a81548173ffffffffffffffffffffffffffffffffffffffff021916908373ffffffffffffffffffffffffffffffffffffffff16021790555060c08201518160060190805190602001906200239592919062003fe4565b5060e08201518160070160006101000a81548173ffffffffffffffffffffffffffffffffffffffff021916908373ffffffffffffffffffffffffffffffffffffffff1602179055506101008201518160070160146101000a81548160ff0219169083600181111562002430577f4e487b7100000000000000000000000000000000000000000000000000000000600052602160045260246000fd5b02179055506101208201518160070160156101000a81548160ff0219169083600381111562002488577f4e487b7100000000000000000000000000000000000000000000000000000000600052602160045260246000fd5b021790555050506200249b600a62002e0f565b508080620024a99062006059565b9150506200221b565b5050565b6000600c8281548110620024f3577f4e487b7100000000000000000000000000000000000000000000000000000000600052603260045260246000fd5b9060005260206000209060080201905080600201547f000000000000000000000000000000000000000000000000000000000000000073ffffffffffffffffffffffffffffffffffffffff166370a08231336040518263ffffffff1660e01b815260040162002563919062005746565b60206040518083038186803b1580156200257c57600080fd5b505afa15801562002591573d6000803e3d6000fd5b505050506040513d601f19601f82011682018060405250810190620025b791906200493c565b11620025fa576040517f08c379a0000000000000000000000000000000000000000000000000000000008152600401620025f190620059de565b60405180910390fd5b80600201547f000000000000000000000000000000000000000000000000000000000000000073ffffffffffffffffffffffffffffffffffffffff1663dd62ed3e33306040518363ffffffff1660e01b81526004016200265c92919062005763565b60206040518083038186803b1580156200267557600080fd5b505afa1580156200268a573d6000803e3d6000fd5b505050506040513d601f19601f82011682018060405250810190620026b091906200493c565b11620026f3576040517f08c379a0000000000000000000000000000000000000000000000000000000008152600401620026ea906200599a565b60405180910390fd5b600060038111156200272e577f4e487b7100000000000000000000000000000000000000000000000000000000600052602160045260246000fd5b8160070160159054906101000a900460ff16600381111562002779577f4e487b7100000000000000000000000000000000000000000000000000000000600052602160045260246000fd5b14620027bc576040517f08c379a0000000000000000000000000000000000000000000000000000000008152600401620027b39062005bfe565b60405180910390fd5b600180811115620027f6577f4e487b7100000000000000000000000000000000000000000000000000000000600052602160045260246000fd5b8160070160149054906101000a900460ff16600181111562002841577f4e487b7100000000000000000000000000000000000000000000000000000000600052602160045260246000fd5b1415620028af5762002854813362003629565b5060028160070160156101000a81548160ff02191690836003811115620028a4577f4e487b7100000000000000000000000000000000000000000000000000000000600052602160045260246000fd5b021790555062002a17565b7f000000000000000000000000000000000000000000000000000000000000000073ffffffffffffffffffffffffffffffffffffffff166323b872dd33620028f66200180d565b84600201546040518463ffffffff1660e01b81526004016200291b9392919062005790565b602060405180830381600087803b1580156200293657600080fd5b505af11580156200294b573d6000803e3d6000fd5b505050506040513d601f19601f82011682018060405250810190620029719190620047c2565b506040518060400160405280600381526020017f4e2f410000000000000000000000000000000000000000000000000000000000815250816006019080519060200190620029c192919062003fe4565b5060018160070160156101000a81548160ff0219169083600381111562002a11577f4e487b7100000000000000000000000000000000000000000000000000000000600052602160045260246000fd5b02179055505b338160050160006101000a81548173ffffffffffffffffffffffffffffffffffffffff021916908373ffffffffffffffffffffffffffffffffffffffff16021790555062002a66600a620038fb565b3373ffffffffffffffffffffffffffffffffffffffff1662002a876200180d565b73ffffffffffffffffffffffffffffffffffffffff167f3f3483d0995db4c081e0101ef6753bef457833c20605cd871de61dcb48085a9a836002015460405162002ad2919062005caa565b60405180910390a35050565b6000600560008473ffffffffffffffffffffffffffffffffffffffff1673ffffffffffffffffffffffffffffffffffffffff16815260200190815260200160002060008373ffffffffffffffffffffffffffffffffffffffff1673ffffffffffffffffffffffffffffffffffffffff16815260200190815260200160002060009054906101000a900460ff16905092915050565b62002b7c62002d4c565b73ffffffffffffffffffffffffffffffffffffffff1662002b9c6200180d565b73ffffffffffffffffffffffffffffffffffffffff161462002bf5576040517f08c379a000000000000000000000000000000000000000000000000000000000815260040162002bec9062005b76565b60405180910390fd5b600073ffffffffffffffffffffffffffffffffffffffff168173ffffffffffffffffffffffffffffffffffffffff16141562002c68576040517f08c379a000000000000000000000000000000000000000000000000000000000815260040162002c5f9062005934565b60405180910390fd5b62002c73816200317c565b50565b60007f01ffc9a7000000000000000000000000000000000000000000000000000000007bffffffffffffffffffffffffffffffffffffffffffffffffffffffff1916827bffffffffffffffffffffffffffffffffffffffffffffffffffffffff1916149050919050565b60008073ffffffffffffffffffffffffffffffffffffffff166002600084815260200190815260200160002060009054906101000a900473ffffffffffffffffffffffffffffffffffffffff1673ffffffffffffffffffffffffffffffffffffffff1614159050919050565b600033905090565b816004600083815260200190815260200160002060006101000a81548173ffffffffffffffffffffffffffffffffffffffff021916908373ffffffffffffffffffffffffffffffffffffffff160217905550808273ffffffffffffffffffffffffffffffffffffffff1662002dc9836200132f565b73ffffffffffffffffffffffffffffffffffffffff167f8c5be1e5ebec7d5bd14f71427d1e84f3dd0314c0f7b2291e5b200ac8c7c3b92560405160405180910390a45050565b6001816000016000828254019250508190555050565b600062002e328262002ce0565b62002e74576040517f08c379a000000000000000000000000000000000000000000000000000000000815260040162002e6b9062005a00565b60405180910390fd5b600062002e81836200132f565b90508073ffffffffffffffffffffffffffffffffffffffff168473ffffffffffffffffffffffffffffffffffffffff16148062002ef357508373ffffffffffffffffffffffffffffffffffffffff1662002edb84620007f7565b73ffffffffffffffffffffffffffffffffffffffff16145b8062002f07575062002f06818562002ade565b5b91505092915050565b8273ffffffffffffffffffffffffffffffffffffffff1662002f32826200132f565b73ffffffffffffffffffffffffffffffffffffffff161462002f8b576040517f08c379a000000000000000000000000000000000000000000000000000000000815260040162002f829062005bba565b60405180910390fd5b600073ffffffffffffffffffffffffffffffffffffffff168273ffffffffffffffffffffffffffffffffffffffff16141562002ffe576040517f08c379a000000000000000000000000000000000000000000000000000000000815260040162002ff59062005978565b60405180910390fd5b6200300b8383836200395a565b6200301860008262002d54565b6001600360008573ffffffffffffffffffffffffffffffffffffffff1673ffffffffffffffffffffffffffffffffffffffff16815260200190815260200160002060008282546200306a919062005eb2565b925050819055506001600360008473ffffffffffffffffffffffffffffffffffffffff1673ffffffffffffffffffffffffffffffffffffffff1681526020019081526020016000206000828254620030c3919062005e1d565b92505081905550816002600083815260200190815260200160002060006101000a81548173ffffffffffffffffffffffffffffffffffffffff021916908373ffffffffffffffffffffffffffffffffffffffff160217905550808273ffffffffffffffffffffffffffffffffffffffff168473ffffffffffffffffffffffffffffffffffffffff167fddf252ad1be2c89b69c2b068fc378daa952ba7f163c4a11628f55a4df523b3ef60405160405180910390a4505050565b6000600760009054906101000a900473ffffffffffffffffffffffffffffffffffffffff16905081600760006101000a81548173ffffffffffffffffffffffffffffffffffffffff021916908373ffffffffffffffffffffffffffffffffffffffff1602179055508173ffffffffffffffffffffffffffffffffffffffff168173ffffffffffffffffffffffffffffffffffffffff167f8be0079c531659141344cd1fd0a4f28419497f9722a3daafe3b4186f6b6457e060405160405180910390a35050565b8173ffffffffffffffffffffffffffffffffffffffff168373ffffffffffffffffffffffffffffffffffffffff161415620032b4576040517f08c379a0000000000000000000000000000000000000000000000000000000008152600401620032ab90620059bc565b60405180910390fd5b80600560008573ffffffffffffffffffffffffffffffffffffffff1673ffffffffffffffffffffffffffffffffffffffff16815260200190815260200160002060008473ffffffffffffffffffffffffffffffffffffffff1673ffffffffffffffffffffffffffffffffffffffff16815260200190815260200160002060006101000a81548160ff0219169083151502179055508173ffffffffffffffffffffffffffffffffffffffff168373ffffffffffffffffffffffffffffffffffffffff167f17307eab39ab6107e8899845ad3d59bd9653f200f220920489ca2b5937696c3183604051620033a7919062005892565b60405180910390a3505050565b620033c184848462002f10565b620033cf848484846200395f565b62003411576040517f08c379a0000000000000000000000000000000000000000000000000000000008152600401620034089062005912565b60405180910390fd5b50505050565b6060620034248262002ce0565b62003466576040517f08c379a00000000000000000000000000000000000000000000000000000000081526004016200345d9062005b32565b60405180910390fd5b6000600660008481526020019081526020016000208054620034889062006023565b80601f0160208091040260200160405190810160405280929190818152602001828054620034b69062006023565b8015620035075780601f10620034db5761010080835404028352916020019162003507565b820191906000526020600020905b815481529060010190602001808311620034e957829003601f168201915b5050505050905060006200351a62003b08565b9050600081511415620035325781925050506200357b565b6000825111156200356b578082604051602001620035529291906200571e565b604051602081830303815290604052925050506200357b565b620035768462003b1f565b925050505b919050565b600081600001549050919050565b620035aa82826040518060200160405280600081525062003bd3565b5050565b620035b98262002ce0565b620035fb576040517f08c379a0000000000000000000000000000000000000000000000000000000008152600401620035f29062005aaa565b60405180910390fd5b806006600084815260200190815260200160002090805190602001906200362492919062003fe4565b505050565b600060018081111562003665577f4e487b7100000000000000000000000000000000000000000000000000000000600052602160045260246000fd5b8360070160149054906101000a900460ff166001811115620036b0577f4e487b7100000000000000000000000000000000000000000000000000000000600052602160045260246000fd5b14620036f3576040517f08c379a0000000000000000000000000000000000000000000000000000000008152600401620036ea9062005a44565b60405180910390fd5b60007f0000000000000000000000000000000000000000000000000000000000000000846002015484620037266200180d565b60405162003734906200417c565b62003743949392919062005821565b604051809103906000f08015801562003760573d6000803e3d6000fd5b5090508073ffffffffffffffffffffffffffffffffffffffff1663b6b55f2585600201546040518263ffffffff1660e01b8152600401620037a2919062005caa565b600060405180830381600087803b158015620037bd57600080fd5b505af1158015620037d2573d6000803e3d6000fd5b50505050808460070160006101000a81548173ffffffffffffffffffffffffffffffffffffffff021916908373ffffffffffffffffffffffffffffffffffffffff160217905550600b819080600181540180825580915050600190039060005260206000200160009091909190916101000a81548173ffffffffffffffffffffffffffffffffffffffff021916908373ffffffffffffffffffffffffffffffffffffffff160217905550620038866200180d565b73ffffffffffffffffffffffffffffffffffffffff163373ffffffffffffffffffffffffffffffffffffffff167f6329281a6ab4c40aabd080b1ed0848d711c52ce8cbfe5f91b95d77eb1e27d3198660020154604051620038e8919062005caa565b60405180910390a3600191505092915050565b600081600001549050600081116200394a576040517f08c379a00000000000000000000000000000000000000000000000000000000081526004016200394190620058f0565b60405180910390fd5b6001810382600001819055505050565b505050565b6000620039828473ffffffffffffffffffffffffffffffffffffffff1662003c35565b1562003afb578373ffffffffffffffffffffffffffffffffffffffff1663150b7a02620039ae62002d4c565b8786866040518563ffffffff1660e01b8152600401620039d29493929190620057cd565b602060405180830381600087803b158015620039ed57600080fd5b505af192505050801562003a2157506040513d601f19601f8201168201806040525081019062003a1e91906200481a565b60015b62003aaa573d806000811462003a54576040519150601f19603f3d011682016040523d82523d6000602084013e62003a59565b606091505b5060008151141562003aa2576040517f08c379a000000000000000000000000000000000000000000000000000000000815260040162003a999062005912565b60405180910390fd5b805181602001fd5b63150b7a0260e01b7bffffffffffffffffffffffffffffffffffffffffffffffffffffffff1916817bffffffffffffffffffffffffffffffffffffffffffffffffffffffff19161491505062003b00565b600190505b949350505050565b606060405180602001604052806000815250905090565b606062003b2c8262002ce0565b62003b6e576040517f08c379a000000000000000000000000000000000000000000000000000000000815260040162003b659062005bdc565b60405180910390fd5b600062003b7a62003b08565b9050600081511162003b9c576040518060200160405280600081525062003bcb565b8062003ba88462003c48565b60405160200162003bbb9291906200571e565b6040516020818303038152906040525b915050919050565b62003bdf838362003e0a565b62003bee60008484846200395f565b62003c30576040517f08c379a000000000000000000000000000000000000000000000000000000000815260040162003c279062005912565b60405180910390fd5b505050565b600080823b905060008111915050919050565b6060600082141562003c92576040518060400160405280600181526020017f3000000000000000000000000000000000000000000000000000000000000000815250905062003e05565b600082905060005b6000821462003cca57808062003cb09062006059565b915050600a8262003cc2919062005e7a565b915062003c9a565b60008167ffffffffffffffff81111562003d0d577f4e487b7100000000000000000000000000000000000000000000000000000000600052604160045260246000fd5b6040519080825280601f01601f19166020018201604052801562003d405781602001600182028036833780820191505090505b5090505b6000851462003dfe5760018262003d5c919062005eb2565b9150600a8562003d6d9190620060a7565b603062003d7b919062005e1d565b60f81b81838151811062003db8577f4e487b7100000000000000000000000000000000000000000000000000000000600052603260045260246000fd5b60200101907effffffffffffffffffffffffffffffffffffffffffffffffffffffffffffff1916908160001a905350600a8562003df6919062005e7a565b945062003d44565b8093505050505b919050565b600073ffffffffffffffffffffffffffffffffffffffff168273ffffffffffffffffffffffffffffffffffffffff16141562003e7d576040517f08c379a000000000000000000000000000000000000000000000000000000000815260040162003e749062005b10565b60405180910390fd5b62003e888162002ce0565b1562003ecb576040517f08c379a000000000000000000000000000000000000000000000000000000000815260040162003ec29062005956565b60405180910390fd5b62003ed9600083836200395a565b6001600360008473ffffffffffffffffffffffffffffffffffffffff1673ffffffffffffffffffffffffffffffffffffffff168152602001908152602001600020600082825462003f2b919062005e1d565b92505081905550816002600083815260200190815260200160002060006101000a81548173ffffffffffffffffffffffffffffffffffffffff021916908373ffffffffffffffffffffffffffffffffffffffff160217905550808273ffffffffffffffffffffffffffffffffffffffff16600073ffffffffffffffffffffffffffffffffffffffff167fddf252ad1be2c89b69c2b068fc378daa952ba7f163c4a11628f55a4df523b3ef60405160405180910390a45050565b82805462003ff29062006023565b90600052602060002090601f01602090048101928262004016576000855562004062565b82601f106200403157805160ff191683800117855562004062565b8280016001018555821562004062579182015b828111156200406157825182559160200191906001019062004044565b5b5090506200407191906200418a565b5090565b60405180610140016040528060008152602001606081526020016000815260200160608152602001600073ffffffffffffffffffffffffffffffffffffffff168152602001600073ffffffffffffffffffffffffffffffffffffffff16815260200160608152602001600073ffffffffffffffffffffffffffffffffffffffff1681526020016000600181111562004136577f4e487b7100000000000000000000000000000000000000000000000000000000600052602160045260246000fd5b81526020016000600381111562004176577f4e487b7100000000000000000000000000000000000000000000000000000000600052602160045260246000fd5b81525090565b61183780620062bc83390190565b5b80821115620041a55760008160009055506001016200418b565b5090565b6000620041c0620041ba8462005cfb565b62005cc7565b9050808382526020820190508260005b85811015620042045781358501620041e98882620043d7565b845260208401935060208301925050600181019050620041d0565b5050509392505050565b6000620042256200421f8462005d2a565b62005cc7565b9050828152602081018484840111156200423e57600080fd5b6200424b84828562005fde565b509392505050565b60006200426a620042648462005d5d565b62005cc7565b9050828152602081018484840111156200428357600080fd5b6200429084828562005fde565b509392505050565b600081359050620042a98162006220565b92915050565b600082601f830112620042c157600080fd5b8135620042d3848260208601620041a9565b91505092915050565b600081359050620042ed816200623a565b92915050565b60008151905062004304816200623a565b92915050565b6000813590506200431b8162006254565b92915050565b600081519050620043328162006254565b92915050565b600082601f8301126200434a57600080fd5b81356200435c8482602086016200420e565b91505092915050565b60008135905062004376816200626e565b92915050565b6000813590506200438d816200627f565b92915050565b600081519050620043a48162006290565b92915050565b600082601f830112620043bc57600080fd5b8135620043ce84826020860162004253565b91505092915050565b60006101408284031215620043eb57600080fd5b620043f861014062005cc7565b905060006200440a848285016200452b565b600083015250602082013567ffffffffffffffff8111156200442b57600080fd5b6200443984828501620043aa565b60208301525060406200444f848285016200452b565b604083015250606082013567ffffffffffffffff8111156200447057600080fd5b6200447e84828501620043aa565b6060830152506080620044948482850162004298565b60808301525060a0620044aa8482850162004298565b60a08301525060c082013567ffffffffffffffff811115620044cb57600080fd5b620044d984828501620043aa565b60c08301525060e0620044ef8482850162004298565b60e08301525061010062004506848285016200437c565b610100830152506101206200451e8482850162004365565b6101208301525092915050565b6000813590506200453c81620062a1565b92915050565b6000815190506200455381620062a1565b92915050565b6000602082840312156200456c57600080fd5b60006200457c8482850162004298565b91505092915050565b600080604083850312156200459957600080fd5b6000620045a98582860162004298565b9250506020620045bc8582860162004298565b9150509250929050565b600080600060608486031215620045dc57600080fd5b6000620045ec8682870162004298565b9350506020620045ff8682870162004298565b925050604062004612868287016200452b565b9150509250925092565b600080600080608085870312156200463357600080fd5b6000620046438782880162004298565b9450506020620046568782880162004298565b935050604062004669878288016200452b565b925050606085013567ffffffffffffffff8111156200468757600080fd5b620046958782880162004338565b91505092959194509250565b60008060408385031215620046b557600080fd5b6000620046c58582860162004298565b9250506020620046d885828601620042dc565b9150509250929050565b60008060408385031215620046f657600080fd5b6000620047068582860162004298565b925050602083013567ffffffffffffffff8111156200472457600080fd5b6200473285828601620043aa565b9150509250929050565b600080604083850312156200475057600080fd5b6000620047608582860162004298565b925050602062004773858286016200452b565b9150509250929050565b6000602082840312156200479057600080fd5b600082013567ffffffffffffffff811115620047ab57600080fd5b620047b984828501620042af565b91505092915050565b600060208284031215620047d557600080fd5b6000620047e584828501620042f3565b91505092915050565b6000602082840312156200480157600080fd5b600062004811848285016200430a565b91505092915050565b6000602082840312156200482d57600080fd5b60006200483d8482850162004321565b91505092915050565b6000602082840312156200485957600080fd5b6000620048698482850162004393565b91505092915050565b600080600080608085870312156200488957600080fd5b600085013567ffffffffffffffff811115620048a457600080fd5b620048b287828801620043aa565b9450506020620048c5878288016200452b565b935050604085013567ffffffffffffffff811115620048e357600080fd5b620048f187828801620043aa565b925050606062004904878288016200437c565b91505092959194509250565b6000602082840312156200492357600080fd5b600062004933848285016200452b565b91505092915050565b6000602082840312156200494f57600080fd5b60006200495f8482850162004542565b91505092915050565b600080604083850312156200497c57600080fd5b60006200498c858286016200452b565b92505060206200499f8582860162004298565b9150509250929050565b60008060408385031215620049bd57600080fd5b6000620049cd858286016200452b565b925050602083013567ffffffffffffffff811115620049eb57600080fd5b620049f985828601620043aa565b9150509250929050565b600062004a11838362005504565b905092915050565b62004a248162005eed565b82525050565b62004a358162005eed565b82525050565b600062004a488262005da0565b62004a54818562005dce565b93508360208202850162004a688562005d90565b8060005b8581101562004aaa578484038952815162004a88858262004a03565b945062004a958362005dc1565b925060208a0199505060018101905062004a6c565b50829750879550505050505092915050565b62004ac78162005f01565b82525050565b600062004ada8262005dab565b62004ae6818562005ddf565b935062004af881856020860162005fed565b62004b0381620061ca565b840191505092915050565b62004b198162005fa2565b82525050565b62004b2a8162005fb6565b82525050565b62004b3b8162005fca565b82525050565b600062004b4e8262005db6565b62004b5a818562005df0565b935062004b6c81856020860162005fed565b62004b7781620061ca565b840191505092915050565b600062004b8f8262005db6565b62004b9b818562005e01565b935062004bad81856020860162005fed565b62004bb881620061ca565b840191505092915050565b600062004bd08262005db6565b62004bdc818562005e12565b935062004bee81856020860162005fed565b80840191505092915050565b600062004c09601b8362005e01565b91507f436f756e7465723a2064656372656d656e74206f766572666c6f7700000000006000830152602082019050919050565b600062004c4b60328362005e01565b91507f4552433732313a207472616e7366657220746f206e6f6e20455243373231526560008301527f63656976657220696d706c656d656e74657200000000000000000000000000006020830152604082019050919050565b600062004cb360268362005e01565b91507f4f776e61626c653a206e6577206f776e657220697320746865207a65726f206160008301527f64647265737300000000000000000000000000000000000000000000000000006020830152604082019050919050565b600062004d1b601c8362005e01565b91507f4552433732313a20746f6b656e20616c7265616479206d696e746564000000006000830152602082019050919050565b600062004d5d60248362005e01565b91507f4552433732313a207472616e7366657220746f20746865207a65726f2061646460008301527f72657373000000000000000000000000000000000000000000000000000000006020830152604082019050919050565b600062004dc560168362005e01565b91507f496e73756666696369656e7420616c6c6f77616e6365000000000000000000006000830152602082019050919050565b600062004e0760198362005e01565b91507f4552433732313a20617070726f766520746f2063616c6c6572000000000000006000830152602082019050919050565b600062004e4960148362005e01565b91507f496e73756666696369656e742062616c616e63650000000000000000000000006000830152602082019050919050565b600062004e8b602c8362005e01565b91507f4552433732313a206f70657261746f7220717565727920666f72206e6f6e657860008301527f697374656e7420746f6b656e00000000000000000000000000000000000000006020830152604082019050919050565b600062004ef360388362005e01565b91507f4552433732313a20617070726f76652063616c6c6572206973206e6f74206f7760008301527f6e6572206e6f7220617070726f76656420666f7220616c6c00000000000000006020830152604082019050919050565b600062004f5b601a8362005e01565b91507f4974656d2074797065206d75737420626520706879736963616c0000000000006000830152602082019050919050565b600062004f9d602a8362005e01565b91507f4552433732313a2062616c616e636520717565727920666f7220746865207a6560008301527f726f2061646472657373000000000000000000000000000000000000000000006020830152604082019050919050565b60006200500560298362005e01565b91507f4552433732313a206f776e657220717565727920666f72206e6f6e657869737460008301527f656e7420746f6b656e00000000000000000000000000000000000000000000006020830152604082019050919050565b60006200506d602e8362005e01565b91507f45524337323155524953746f726167653a2055524920736574206f66206e6f6e60008301527f6578697374656e7420746f6b656e0000000000000000000000000000000000006020830152604082019050919050565b6000620050d560178362005e01565b91507f4974656d206d75737420626520696e207472616e7369740000000000000000006000830152602082019050919050565b60006200511760168362005e01565b91507f496e76616c696420657363726f772061646472657373000000000000000000006000830152602082019050919050565b60006200515960208362005e01565b91507f4552433732313a206d696e7420746f20746865207a65726f20616464726573736000830152602082019050919050565b60006200519b60318362005e01565b91507f45524337323155524953746f726167653a2055524920717565727920666f722060008301527f6e6f6e6578697374656e7420746f6b656e0000000000000000000000000000006020830152604082019050919050565b600062005203602c8362005e01565b91507f4552433732313a20617070726f76656420717565727920666f72206e6f6e657860008301527f697374656e7420746f6b656e00000000000000000000000000000000000000006020830152604082019050919050565b60006200526b60208362005e01565b91507f4f776e61626c653a2063616c6c6572206973206e6f7420746865206f776e65726000830152602082019050919050565b6000620052ad600e8362005e01565b91507f53686f7020697320636c6f7365640000000000000000000000000000000000006000830152602082019050919050565b6000620052ef60298362005e01565b91507f4552433732313a207472616e73666572206f6620746f6b656e2074686174206960008301527f73206e6f74206f776e00000000000000000000000000000000000000000000006020830152604082019050919050565b600062005357602f8362005e01565b91507f4552433732314d657461646174613a2055524920717565727920666f72206e6f60008301527f6e6578697374656e7420746f6b656e00000000000000000000000000000000006020830152604082019050919050565b6000620053bf60138362005e01565b91507f4974656d20697320756e617661696c61626c65000000000000000000000000006000830152602082019050919050565b60006200540160218362005e01565b91507f4552433732313a20617070726f76616c20746f2063757272656e74206f776e6560008301527f72000000000000000000000000000000000000000000000000000000000000006020830152604082019050919050565b60006200546960318362005e01565b91507f4552433732313a207472616e736665722063616c6c6572206973206e6f74206f60008301527f776e6572206e6f7220617070726f7665640000000000000000000000000000006020830152604082019050919050565b6000620054d160158362005e01565b91507f4974656d732063616e6e6f7420626520656d70747900000000000000000000006000830152602082019050919050565b6000610140830160008301516200551f6000860182620056fc565b506020830151848203602086015262005539828262004b41565b9150506040830151620055506040860182620056fc565b50606083015184820360608601526200556a828262004b41565b915050608083015162005581608086018262004a19565b5060a08301516200559660a086018262004a19565b5060c083015184820360c0860152620055b0828262004b41565b91505060e0830151620055c760e086018262004a19565b50610100830151620055de61010086018262004b1f565b50610120830151620055f561012086018262004b0e565b508091505092915050565b6000610140830160008301516200561b6000860182620056fc565b506020830151848203602086015262005635828262004b41565b91505060408301516200564c6040860182620056fc565b506060830151848203606086015262005666828262004b41565b91505060808301516200567d608086018262004a19565b5060a08301516200569260a086018262004a19565b5060c083015184820360c0860152620056ac828262004b41565b91505060e0830151620056c360e086018262004a19565b50610100830151620056da61010086018262004b1f565b50610120830151620056f161012086018262004b0e565b508091505092915050565b620057078162005f98565b82525050565b620057188162005f98565b82525050565b60006200572c828562004bc3565b91506200573a828462004bc3565b91508190509392505050565b60006020820190506200575d600083018462004a2a565b92915050565b60006040820190506200577a600083018562004a2a565b62005789602083018462004a2a565b9392505050565b6000606082019050620057a7600083018662004a2a565b620057b6602083018562004a2a565b620057c560408301846200570d565b949350505050565b6000608082019050620057e4600083018762004a2a565b620057f3602083018662004a2a565b6200580260408301856200570d565b818103606083015262005816818462004acd565b905095945050505050565b600060808201905062005838600083018762004a2a565b6200584760208301866200570d565b62005856604083018562004a2a565b62005865606083018462004a2a565b95945050505050565b600060208201905081810360008301526200588a818462004a3b565b905092915050565b6000602082019050620058a9600083018462004abc565b92915050565b6000602082019050620058c6600083018462004b30565b92915050565b60006020820190508181036000830152620058e8818462004b82565b905092915050565b600060208201905081810360008301526200590b8162004bfa565b9050919050565b600060208201905081810360008301526200592d8162004c3c565b9050919050565b600060208201905081810360008301526200594f8162004ca4565b9050919050565b60006020820190508181036000830152620059718162004d0c565b9050919050565b60006020820190508181036000830152620059938162004d4e565b9050919050565b60006020820190508181036000830152620059b58162004db6565b9050919050565b60006020820190508181036000830152620059d78162004df8565b9050919050565b60006020820190508181036000830152620059f98162004e3a565b9050919050565b6000602082019050818103600083015262005a1b8162004e7c565b9050919050565b6000602082019050818103600083015262005a3d8162004ee4565b9050919050565b6000602082019050818103600083015262005a5f8162004f4c565b9050919050565b6000602082019050818103600083015262005a818162004f8e565b9050919050565b6000602082019050818103600083015262005aa38162004ff6565b9050919050565b6000602082019050818103600083015262005ac5816200505e565b9050919050565b6000602082019050818103600083015262005ae781620050c6565b9050919050565b6000602082019050818103600083015262005b098162005108565b9050919050565b6000602082019050818103600083015262005b2b816200514a565b9050919050565b6000602082019050818103600083015262005b4d816200518c565b9050919050565b6000602082019050818103600083015262005b6f81620051f4565b9050919050565b6000602082019050818103600083015262005b91816200525c565b9050919050565b6000602082019050818103600083015262005bb3816200529e565b9050919050565b6000602082019050818103600083015262005bd581620052e0565b9050919050565b6000602082019050818103600083015262005bf78162005348565b9050919050565b6000602082019050818103600083015262005c1981620053b0565b9050919050565b6000602082019050818103600083015262005c3b81620053f2565b9050919050565b6000602082019050818103600083015262005c5d816200545a565b9050919050565b6000602082019050818103600083015262005c7f81620054c2565b9050919050565b6000602082019050818103600083015262005ca2818462005600565b905092915050565b600060208201905062005cc160008301846200570d565b92915050565b6000604051905081810181811067ffffffffffffffff8211171562005cf15762005cf06200619b565b5b8060405250919050565b600067ffffffffffffffff82111562005d195762005d186200619b565b5b602082029050602081019050919050565b600067ffffffffffffffff82111562005d485762005d476200619b565b5b601f19601f8301169050602081019050919050565b600067ffffffffffffffff82111562005d7b5762005d7a6200619b565b5b601f19601f8301169050602081019050919050565b6000819050602082019050919050565b600081519050919050565b600081519050919050565b600081519050919050565b6000602082019050919050565b600082825260208201905092915050565b600082825260208201905092915050565b600082825260208201905092915050565b600082825260208201905092915050565b600081905092915050565b600062005e2a8262005f98565b915062005e378362005f98565b9250827fffffffffffffffffffffffffffffffffffffffffffffffffffffffffffffffff0382111562005e6f5762005e6e620060df565b5b828201905092915050565b600062005e878262005f98565b915062005e948362005f98565b92508262005ea75762005ea66200610e565b5b828204905092915050565b600062005ebf8262005f98565b915062005ecc8362005f98565b92508282101562005ee25762005ee1620060df565b5b828203905092915050565b600062005efa8262005f78565b9050919050565b60008115159050919050565b60007fffffffff0000000000000000000000000000000000000000000000000000000082169050919050565b600081905062005f4982620061db565b919050565b600081905062005f5e82620061f2565b919050565b600081905062005f738262006209565b919050565b600073ffffffffffffffffffffffffffffffffffffffff82169050919050565b6000819050919050565b600062005faf8262005f39565b9050919050565b600062005fc38262005f4e565b9050919050565b600062005fd78262005f63565b9050919050565b82818337600083830152505050565b60005b838110156200600d57808201518184015260208101905062005ff0565b838111156200601d576000848401525b50505050565b600060028204905060018216806200603c57607f821691505b602082108114156200605357620060526200616c565b5b50919050565b6000620060668262005f98565b91507fffffffffffffffffffffffffffffffffffffffffffffffffffffffffffffffff8214156200609c576200609b620060df565b5b600182019050919050565b6000620060b48262005f98565b9150620060c18362005f98565b925082620060d457620060d36200610e565b5b828206905092915050565b7f4e487b7100000000000000000000000000000000000000000000000000000000600052601160045260246000fd5b7f4e487b7100000000000000000000000000000000000000000000000000000000600052601260045260246000fd5b7f4e487b7100000000000000000000000000000000000000000000000000000000600052602160045260246000fd5b7f4e487b7100000000000000000000000000000000000000000000000000000000600052602260045260246000fd5b7f4e487b7100000000000000000000000000000000000000000000000000000000600052604160045260246000fd5b6000601f19601f8301169050919050565b60048110620061ef57620061ee6200613d565b5b50565b600281106200620657620062056200613d565b5b50565b600381106200621d576200621c6200613d565b5b50565b6200622b8162005eed565b81146200623757600080fd5b50565b620062458162005f01565b81146200625157600080fd5b50565b6200625f8162005f0d565b81146200626b57600080fd5b50565b600481106200627c57600080fd5b50565b600281106200628d57600080fd5b50565b600581106200629e57600080fd5b50565b620062ac8162005f98565b8114620062b857600080fd5b5056fe60806040523480156200001157600080fd5b506040516200183738038062001837833981810160405281019062000037919062000225565b620000576200004b6200012b60201b60201c565b6200013360201b60201c565b83600160006101000a81548173ffffffffffffffffffffffffffffffffffffffff021916908373ffffffffffffffffffffffffffffffffffffffff1602179055508260028190555081600360006101000a81548173ffffffffffffffffffffffffffffffffffffffff021916908373ffffffffffffffffffffffffffffffffffffffff16021790555080600460006101000a81548173ffffffffffffffffffffffffffffffffffffffff021916908373ffffffffffffffffffffffffffffffffffffffff1602179055505050505062000303565b600033905090565b60008060009054906101000a900473ffffffffffffffffffffffffffffffffffffffff169050816000806101000a81548173ffffffffffffffffffffffffffffffffffffffff021916908373ffffffffffffffffffffffffffffffffffffffff1602179055508173ffffffffffffffffffffffffffffffffffffffff168173ffffffffffffffffffffffffffffffffffffffff167f8be0079c531659141344cd1fd0a4f28419497f9722a3daafe3b4186f6b6457e060405160405180910390a35050565b6000815190506200020881620002cf565b92915050565b6000815190506200021f81620002e9565b92915050565b600080600080608085870312156200023c57600080fd5b60006200024c87828801620001f7565b94505060206200025f878288016200020e565b93505060406200027287828801620001f7565b92505060606200028587828801620001f7565b91505092959194509250565b60006200029e82620002a5565b9050919050565b600073ffffffffffffffffffffffffffffffffffffffff82169050919050565b6000819050919050565b620002da8162000291565b8114620002e657600080fd5b50565b620002f481620002c5565b81146200030057600080fd5b50565b61152480620003136000396000f3fe608060405234801561001057600080fd5b506004361061009e5760003560e01c8063b6b55f2511610066578063b6b55f2514610111578063c19d93fb1461012d578063dae805211461014b578063f240f7c314610155578063f2fde38b1461015f5761009e565b806308551a53146100a35780635e10177b146100c1578063715018a6146100cb5780637150d8ae146100d55780638da5cb5b146100f3575b600080fd5b6100ab61017b565b6040516100b89190611257565b60405180910390f35b6100c96101a1565b005b6100d361048c565b005b6100dd610514565b6040516100ea9190611257565b60405180910390f35b6100fb61053a565b6040516101089190611257565b60405180910390f35b61012b60048036038101906101269190610fcf565b610563565b005b61013561084d565b60405161014291906112d2565b60405180910390f35b610153610860565b005b61015d610b2a565b005b61017960048036038101906101749190610f7d565b610d7a565b005b600460009054906101000a900473ffffffffffffffffffffffffffffffffffffffff1681565b600360009054906101000a900473ffffffffffffffffffffffffffffffffffffffff1673ffffffffffffffffffffffffffffffffffffffff163373ffffffffffffffffffffffffffffffffffffffff1614610231576040517f08c379a00000000000000000000000000000000000000000000000000000000081526004016102289061130d565b60405180910390fd5b6001600481111561026b577f4e487b7100000000000000000000000000000000000000000000000000000000600052602160045260246000fd5b600060149054906101000a900460ff1660048111156102b3577f4e487b7100000000000000000000000000000000000000000000000000000000600052602160045260246000fd5b146102f3576040517f08c379a00000000000000000000000000000000000000000000000000000000081526004016102ea9061136d565b60405180910390fd5b600160009054906101000a900473ffffffffffffffffffffffffffffffffffffffff1673ffffffffffffffffffffffffffffffffffffffff1663a9059cbb600460009054906101000a900473ffffffffffffffffffffffffffffffffffffffff166002546040518363ffffffff1660e01b81526004016103749291906112a9565b602060405180830381600087803b15801561038e57600080fd5b505af11580156103a2573d6000803e3d6000fd5b505050506040513d601f19601f820116820180604052508101906103c69190610fa6565b506004600060146101000a81548160ff02191690836004811115610413577f4e487b7100000000000000000000000000000000000000000000000000000000600052602160045260246000fd5b0217905550600460009054906101000a900473ffffffffffffffffffffffffffffffffffffffff1673ffffffffffffffffffffffffffffffffffffffff167fd4f43975feb89f48dd30cabbb32011045be187d1e11c8ea9faa43efc3528251960025460405161048291906113cd565b60405180910390a2565b610494610e72565b73ffffffffffffffffffffffffffffffffffffffff166104b261053a565b73ffffffffffffffffffffffffffffffffffffffff1614610508576040517f08c379a00000000000000000000000000000000000000000000000000000000081526004016104ff9061134d565b60405180910390fd5b6105126000610e7a565b565b600360009054906101000a900473ffffffffffffffffffffffffffffffffffffffff1681565b60008060009054906101000a900473ffffffffffffffffffffffffffffffffffffffff16905090565b600360009054906101000a900473ffffffffffffffffffffffffffffffffffffffff1673ffffffffffffffffffffffffffffffffffffffff163373ffffffffffffffffffffffffffffffffffffffff16146105f3576040517f08c379a00000000000000000000000000000000000000000000000000000000081526004016105ea9061130d565b60405180910390fd5b6000600481111561062d577f4e487b7100000000000000000000000000000000000000000000000000000000600052602160045260246000fd5b600060149054906101000a900460ff166004811115610675577f4e487b7100000000000000000000000000000000000000000000000000000000600052602160045260246000fd5b146106b5576040517f08c379a00000000000000000000000000000000000000000000000000000000081526004016106ac9061132d565b60405180910390fd5b60025481146106f9576040517f08c379a00000000000000000000000000000000000000000000000000000000081526004016106f09061138d565b60405180910390fd5b600160009054906101000a900473ffffffffffffffffffffffffffffffffffffffff1673ffffffffffffffffffffffffffffffffffffffff166323b872dd3330846040518463ffffffff1660e01b815260040161075893929190611272565b602060405180830381600087803b15801561077257600080fd5b505af1158015610786573d6000803e3d6000fd5b505050506040513d601f19601f820116820180604052508101906107aa9190610fa6565b506001600060146101000a81548160ff021916908360048111156107f7577f4e487b7100000000000000000000000000000000000000000000000000000000600052602160045260246000fd5b02179055503373ffffffffffffffffffffffffffffffffffffffff167fe1fffcc4923d04b559f4d29a8bfc6cda04eb5b0d3c460751c2402c5c5cc9109c8260405161084291906113cd565b60405180910390a250565b600060149054906101000a900460ff1681565b610868610e72565b73ffffffffffffffffffffffffffffffffffffffff1661088661053a565b73ffffffffffffffffffffffffffffffffffffffff16146108dc576040517f08c379a00000000000000000000000000000000000000000000000000000000081526004016108d39061134d565b60405180910390fd5b60026004811115610916577f4e487b7100000000000000000000000000000000000000000000000000000000600052602160045260246000fd5b600060149054906101000a900460ff16600481111561095e577f4e487b7100000000000000000000000000000000000000000000000000000000600052602160045260246000fd5b1461099e576040517f08c379a0000000000000000000000000000000000000000000000000000000008152600401610995906113ad565b60405180910390fd5b600160009054906101000a900473ffffffffffffffffffffffffffffffffffffffff1673ffffffffffffffffffffffffffffffffffffffff1663a9059cbb600360009054906101000a900473ffffffffffffffffffffffffffffffffffffffff166002546040518363ffffffff1660e01b8152600401610a1f9291906112a9565b602060405180830381600087803b158015610a3957600080fd5b505af1158015610a4d573d6000803e3d6000fd5b505050506040513d601f19601f82011682018060405250810190610a719190610fa6565b507fbb28353e4598c3b9199101a66e0989549b659a59a54d2c27fbb183f1932c8e6d600360009054906101000a900473ffffffffffffffffffffffffffffffffffffffff16600254604051610ac79291906112a9565b60405180910390a16003600060146101000a81548160ff02191690836004811115610b1b577f4e487b7100000000000000000000000000000000000000000000000000000000600052602160045260246000fd5b02179055506000600281905550565b600360009054906101000a900473ffffffffffffffffffffffffffffffffffffffff1673ffffffffffffffffffffffffffffffffffffffff163373ffffffffffffffffffffffffffffffffffffffff1614610bba576040517f08c379a0000000000000000000000000000000000000000000000000000000008152600401610bb19061130d565b60405180910390fd5b60016004811115610bf4577f4e487b7100000000000000000000000000000000000000000000000000000000600052602160045260246000fd5b600060149054906101000a900460ff166004811115610c3c577f4e487b7100000000000000000000000000000000000000000000000000000000600052602160045260246000fd5b14610c7c576040517f08c379a0000000000000000000000000000000000000000000000000000000008152600401610c739061136d565b60405180910390fd5b6002600060146101000a81548160ff02191690836004811115610cc8577f4e487b7100000000000000000000000000000000000000000000000000000000600052602160045260246000fd5b0217905550600460009054906101000a900473ffffffffffffffffffffffffffffffffffffffff1673ffffffffffffffffffffffffffffffffffffffff16600360009054906101000a900473ffffffffffffffffffffffffffffffffffffffff1673ffffffffffffffffffffffffffffffffffffffff167f3039bbbb290ea05336bd9acec0c89358030c0e7e00469f4003c81e5e7c8f6761600254604051610d7091906113cd565b60405180910390a3565b610d82610e72565b73ffffffffffffffffffffffffffffffffffffffff16610da061053a565b73ffffffffffffffffffffffffffffffffffffffff1614610df6576040517f08c379a0000000000000000000000000000000000000000000000000000000008152600401610ded9061134d565b60405180910390fd5b600073ffffffffffffffffffffffffffffffffffffffff168173ffffffffffffffffffffffffffffffffffffffff161415610e66576040517f08c379a0000000000000000000000000000000000000000000000000000000008152600401610e5d906112ed565b60405180910390fd5b610e6f81610e7a565b50565b600033905090565b60008060009054906101000a900473ffffffffffffffffffffffffffffffffffffffff169050816000806101000a81548173ffffffffffffffffffffffffffffffffffffffff021916908373ffffffffffffffffffffffffffffffffffffffff1602179055508173ffffffffffffffffffffffffffffffffffffffff168173ffffffffffffffffffffffffffffffffffffffff167f8be0079c531659141344cd1fd0a4f28419497f9722a3daafe3b4186f6b6457e060405160405180910390a35050565b600081359050610f4d816114a9565b92915050565b600081519050610f62816114c0565b92915050565b600081359050610f77816114d7565b92915050565b600060208284031215610f8f57600080fd5b6000610f9d84828501610f3e565b91505092915050565b600060208284031215610fb857600080fd5b6000610fc684828501610f53565b91505092915050565b600060208284031215610fe157600080fd5b6000610fef84828501610f68565b91505092915050565b611001816113f9565b82525050565b61101081611454565b82525050565b60006110236026836113e8565b91507f4f776e61626c653a206e6577206f776e657220697320746865207a65726f206160008301527f64647265737300000000000000000000000000000000000000000000000000006020830152604082019050919050565b60006110896025836113e8565b91507f4f6e6c79207468652062757965722063616e2063616c6c20746869732066756e60008301527f6374696f6e0000000000000000000000000000000000000000000000000000006020830152604082019050919050565b60006110ef601f836113e8565b91507f41206465706f7369742077617320616c726561647920636f6d706c65746564006000830152602082019050919050565b600061112f6020836113e8565b91507f4f776e61626c653a2063616c6c6572206973206e6f7420746865206f776e65726000830152602082019050919050565b600061116f6022836113e8565b91507f4d75737420626520696e206177616974696e672064656c69766572792073746160008301527f74650000000000000000000000000000000000000000000000000000000000006020830152604082019050919050565b60006111d56018836113e8565b91507f496e636f7272656374206465706f73697420616d6f756e7400000000000000006000830152602082019050919050565b60006112156019836113e8565b91507f4d75737420626520696e206469737075746564207374617465000000000000006000830152602082019050919050565b6112518161144a565b82525050565b600060208201905061126c6000830184610ff8565b92915050565b60006060820190506112876000830186610ff8565b6112946020830185610ff8565b6112a16040830184611248565b949350505050565b60006040820190506112be6000830185610ff8565b6112cb6020830184611248565b9392505050565b60006020820190506112e76000830184611007565b92915050565b6000602082019050818103600083015261130681611016565b9050919050565b600060208201905081810360008301526113268161107c565b9050919050565b60006020820190508181036000830152611346816110e2565b9050919050565b6000602082019050818103600083015261136681611122565b9050919050565b6000602082019050818103600083015261138681611162565b9050919050565b600060208201905081810360008301526113a6816111c8565b9050919050565b600060208201905081810360008301526113c681611208565b9050919050565b60006020820190506113e26000830184611248565b92915050565b600082825260208201905092915050565b60006114048261142a565b9050919050565b60008115159050919050565b600081905061142582611495565b919050565b600073ffffffffffffffffffffffffffffffffffffffff82169050919050565b6000819050919050565b600061145f82611417565b9050919050565b7f4e487b7100000000000000000000000000000000000000000000000000000000600052602160045260246000fd5b600581106114a6576114a5611466565b5b50565b6114b2816113f9565b81146114bd57600080fd5b50565b6114c98161140b565b81146114d457600080fd5b50565b6114e08161144a565b81146114eb57600080fd5b5056fea2646970667358221220807d8c49935b15523e7999e1696a7f5cf2d00f72500ee2d3d2106305cd46857864736f6c63430008000033a2646970667358221220e6e9dd25e2cf31bc72088766b11bdedbf48b4e3cc4f01e4cffec34f86baeb66764736f6c63430008000033",
  "immutableReferences": {
    "304": [
      {
        "length": 32,
        "start": 9482
      },
      {
        "length": 32,
        "start": 9729
      },
      {
        "length": 32,
        "start": 10417
      },
      {
        "length": 32,
        "start": 14071
      }
    ]
  },
  "source": "// SPDX-License-Identifier: MIT\npragma solidity >=0.8.0;\n\nimport \"./Vibra.sol\";\nimport \"./Escrow.sol\";\nimport \"@openzeppelin/contracts/token/ERC721/ERC721.sol\";\nimport \"@openzeppelin/contracts/access/Ownable.sol\";\n\n\nimport \"@openzeppelin/contracts/utils/Counters.sol\";\nimport \"@openzeppelin/contracts/token/ERC721/extensions/ERC721URIStorage.sol\";\n\n/// 'mintNFT'+ addItem()\n// add token swap to webshop\n// add raffle mechanism\n\ncontract WebShop is ERC721, ERC721URIStorage, Ownable {\n    using Counters for Counters.Counter;\n    Vibra internal immutable vibra;\n    ShopStatus public status;\n    string public names;\n    uint256 private itemCounter;\n    Counters.Counter private availableItemsCounter;\n\n    \n\n    struct Item {\n        uint256 id;\n        string names;\n        uint256 price;\n        string url;\n        address creator;\n        address owner;\n        string trackingNumber;\n        address escrow;\n        ItemType itemType;\n        ItemStatus itemStatus;\n    }\n    enum ShopStatus {\n        OPEN,\n        RESTOCKING,\n        CLOSED\n    }\n    enum ItemType {\n        DIGITAL,\n        PHYSICAL\n    }\n    enum ItemStatus {\n        AVAILABLE,\n        SOLD,\n        IN_TRANSIT,\n        REMOVED\n    }\n\n    address[] private escrows;\n    Item[] private items;\n\n    event Sale(address indexed owner, address indexed buyer, uint256 price);\n    event AddItem(address indexed owner, uint256 itemId);\n    event ItemStep(\n        address indexed owner,\n        ItemStatus indexed itemStatus,\n        uint256 itemId\n    );\n    event CreateEscrow(\n        address indexed buyer,\n        address indexed owner,\n        uint256 value\n    );\n\n    constructor(address _vibra, string memory _name) ERC721(\"MyToken\", \"MTK\") {\n        vibra = Vibra(_vibra);\n        _name = _name;\n    }\n\n    function getItemCount() external view returns (uint256) {\n        return items.length;\n    }\n\n    function getItemById(uint256 _id) external view returns (Item memory) {\n        return items[_id];\n    }\n\n    function getAllItems() external view returns (Item[] memory) {\n        return items;\n    }\n\n    function buyItem(uint256 _id) public {\n        Item storage item = items[_id];\n\n        require(\n            vibra.balanceOf(msg.sender) > item.price,\n            \"Insufficient balance\"\n        );\n        require(\n            vibra.allowance(msg.sender, address(this)) > item.price,\n            \"Insufficient allowance\"\n        );\n        require(item.itemStatus == ItemStatus.AVAILABLE, \"Item is unavailable\");\n\n        if (item.itemType == ItemType.PHYSICAL) {\n            _buyPhysicalItem(item, msg.sender);\n            item.itemStatus = ItemStatus.IN_TRANSIT;\n        } else {\n            vibra.transferFrom(msg.sender, owner(), item.price);\n            item.trackingNumber = \"N/A\";\n            item.itemStatus = ItemStatus.SOLD;\n        }\n\n        item.owner = msg.sender;\n\n        availableItemsCounter.decrement();\n\n        emit Sale(owner(), msg.sender, item.price);\n    }\n\n    function addItem(\n        string memory _name,\n        uint256 _price,\n        string memory _url,\n        ItemType _type\n    ) public returns (bool) {\n        require(status != ShopStatus.CLOSED, \"Shop is closed\");\n\n        items.push(\n            Item({\n                id: items.length + 1,\n                names: _name,\n                price: _price,\n                url: _url,\n                owner: owner(),\n                creator: owner(),\n                trackingNumber: \"\",\n                escrow: address(0),\n                itemType: _type,\n                itemStatus: ItemStatus.AVAILABLE\n            })\n        );\n\n        emit AddItem(owner(), itemCounter);\n        availableItemsCounter.increment();\n\n        return true;\n    }\n\n    function addItems(Item[] memory _items) external onlyOwner {\n        require(_items.length > 0, \"Items cannot be empty\");\n\n        for (uint256 i = 0; i < _items.length; i++) {\n            Item memory item = _items[i];\n            items.push(item);\n            availableItemsCounter.increment();\n        }\n    }\n\n    function safeMint(address to, string memory uri) public onlyOwner {\n        uint256 tokenId = availableItemsCounter.current();\n        availableItemsCounter.increment();\n        _safeMint(to, tokenId);\n        _setTokenURI(tokenId, uri);\n    }\n    function _burn(uint256 tokenId) internal override(ERC721, ERC721URIStorage) {\n        super._burn(tokenId);\n    }\n\n    function tokenURI(uint256 tokenId)\n        public\n        view\n        override(ERC721, ERC721URIStorage)\n        returns (string memory)\n    {\n        return super.tokenURI(tokenId);\n    }\n\n    // The following functions are overrides required by Solidity.\n\n\n\n\n    function _buyPhysicalItem(Item storage _item, address _buyer)\n        internal\n        returns (bool)\n    {\n        require(\n            _item.itemType == ItemType.PHYSICAL,\n            \"Item type must be physical\"\n        );\n\n        Escrow escrow = new Escrow(\n            address(vibra),\n            _item.price,\n            _buyer,\n            owner()\n        );\n\n        escrow.deposit(_item.price);\n\n        _item.escrow = address(escrow);\n        \n        escrows.push(address(escrow));\n\n        emit CreateEscrow(msg.sender, owner(), _item.price);\n        return true;\n    }\n\n    function addTrackingNumber(uint256 _id, string memory _trackingNbr)\n        public\n        onlyOwner\n    {\n        Item storage item = items[_id];\n\n        require(\n            item.itemStatus == ItemStatus.IN_TRANSIT,\n            \"Item must be in transit\"\n        );\n\n        item.trackingNumber = _trackingNbr;\n        item.itemStatus = ItemStatus.IN_TRANSIT;\n\n        emit ItemStep(item.owner, item.itemStatus, item.id);\n    }\n\n    function confirmDeliveryOfItem(uint256 _id, address _escrow) public {\n        require(items[_id].escrow == _escrow, \"Invalid escrow address\");\n        \n        Escrow escrow = Escrow(_escrow);\n\n        require(escrow.state() == Escrow.State.COMPLETE);\n\n        Item storage item = items[_id];\n        item.owner = msg.sender;\n        item.itemStatus = ItemStatus.SOLD;\n        \n    }\n}",
  "sourcePath": "/Users/angelicacolon/Desktop/Vibra-Finance/contracts/WebShop.sol",
  "compiler": {
    "name": "solc",
    "version": "0.8.0+commit.c7dfd78e.Emscripten.clang"
  },
  "schemaVersion": "3.4.1",
  "updatedAt": "2021-12-11T12:44:21.525Z",
  "devdoc": {
    "kind": "dev",
    "methods": {
      "approve(address,uint256)": {
        "details": "See {IERC721-approve}."
      },
      "balanceOf(address)": {
        "details": "See {IERC721-balanceOf}."
      },
      "getApproved(uint256)": {
        "details": "See {IERC721-getApproved}."
      },
      "isApprovedForAll(address,address)": {
        "details": "See {IERC721-isApprovedForAll}."
      },
      "name()": {
        "details": "See {IERC721Metadata-name}."
      },
      "owner()": {
        "details": "Returns the address of the current owner."
      },
      "ownerOf(uint256)": {
        "details": "See {IERC721-ownerOf}."
      },
      "renounceOwnership()": {
        "details": "Leaves the contract without owner. It will not be possible to call `onlyOwner` functions anymore. Can only be called by the current owner. NOTE: Renouncing ownership will leave the contract without an owner, thereby removing any functionality that is only available to the owner."
      },
      "safeTransferFrom(address,address,uint256)": {
        "details": "See {IERC721-safeTransferFrom}."
      },
      "safeTransferFrom(address,address,uint256,bytes)": {
        "details": "See {IERC721-safeTransferFrom}."
      },
      "setApprovalForAll(address,bool)": {
        "details": "See {IERC721-setApprovalForAll}."
      },
      "supportsInterface(bytes4)": {
        "details": "See {IERC165-supportsInterface}."
      },
      "symbol()": {
        "details": "See {IERC721Metadata-symbol}."
      },
      "transferFrom(address,address,uint256)": {
        "details": "See {IERC721-transferFrom}."
      },
      "transferOwnership(address)": {
        "details": "Transfers ownership of the contract to a new account (`newOwner`). Can only be called by the current owner."
      }
    },
    "version": 1
  },
  "userdoc": {
    "kind": "user",
    "methods": {},
    "notice": "'mintNFT'+ addItem()",
    "version": 1
  }
}